:1000000058470020F12C0000D5EB0000C52C000063
:10001000C52C0000C52C0000C52C0000C52C00001C
:100020000000000000000000000000001D2900008A
:10003000C52C000000000000B5280000C52C000001
:10004000A9290000A9290000A9290000A929000068
:10005000A9290000A9290000A9290000A929000058
:10006000A9290000A9290000A9290000A929000048
:10007000A9290000A9290000A9290000A929000038
:10008000A9290000A9290000A9290000A929000028
:10009000A9290000A9290000A9290000A929000018
:1000A000A9290000A9290000A9290000A929000008
:1000B000A9290000A9290000A9290000A9290000F8
:1000C000A9290000A9290000A9290000A9290000E8
:1000D000A9290000A9290000A9290000A9290000D8
:1000E000A9290000A9290000A9290000A9290000C8
:1000F000A9290000A9290000A9290000A9290000B8
:10010000A9290000A9290000A9290000A9290000A7
:10011000A9290000A9290000A9290000A929000097
:10012000A9290000A9290000A9290000A929000087
:10013000A9290000A9290000A9290000A929000077
:10014000A9290000A9290000A9290000A929000067
:04015000A9290000D9
:04015400FFFFFFFFAB
:100158004FF0FF0C1CEAD0521EBF1CEAD15392EAA2
:100168000C0F93EA0C0F6FD01A4480EA010C40027E
:1001780018BF5FEA41211ED04FF0006343EA5010D8
:1001880043EA5111A0FB01310CF00040B1F5000F1A
:100198003EBF490041EAD3715B0040EA010062F1C9
:1001A8007F02FD2A1DD8B3F1004F40EBC25008BFB3
:1001B80020F00100704790F0000F0CF0004C08BFD1
:1001C80049024CEA502040EA51207F3AC2BFD2F19E
:1001D800FF0340EAC250704740F400004FF00003AC
:1001E800013A5DDC12F1190FDCBF00F000407047E6
:1001F800C2F10002410021FA02F1C2F1200200FA24
:1002080002FC5FEA310040F1000053EA4C0308BFEA
:1002180020EADC70704792F0000F00F0004C02BF3B
:10022800400010F4000F013AF9D040EA0C0093F0B6
:10023800000F01F0004C02BF490011F4000F013B10
:10024800F9D041EA0C018FE70CEAD15392EA0C0F7E
:1002580018BF93EA0C0F0AD030F0004C18BF31F0E9
:10026800004CD8D180EA010000F00040704790F0BF
:10027800000F17BF90F0004F084691F0000F91F063
:10028800004F14D092EA0C0F01D142020FD193EA29
:100298000C0F03D14B0218BF084608D180EA0100B1
:1002A80000F0004040F0FE4040F40000704740F08D
:1002B800FE4040F44000704781F0004102E000BF7A
:1002C80083F0004330B54FEA41044FEA430594EA0E
:1002D800050F08BF90EA020F1FBF54EA000C55EA49
:1002E800020C7FEA645C7FEA655C00F0E2804FEA1A
:1002F8005454D4EB5555B8BF6D420CDD2C4480EAFC
:10030800020281EA030382EA000083EA010180EA2B
:10031800020281EA0303362D88BF30BD11F0004F79
:100328004FEA01314FF4801C4CEA113102D04042AF
:1003380061EB410113F0004F4FEA03334CEA1333EA
:1003480002D0524263EB430394EA050F00F0A78002
:10035800A4F10104D5F1200E0DDB02FA0EFC22FAFD
:1003680005F2801841F1000103FA0EF2801843FAF1
:1003780005F359410EE0A5F120050EF1200E012AE2
:1003880003FA0EFC28BF4CF0020C43FA05F3C01820
:1003980051EBE37101F0004507D54FF0000EDCF199
:1003A800000C7EEB00006EEB0101B1F5801F1BD342
:1003B800B1F5001F0CD349085FEA30004FEA3C0C46
:1003C80004F101044FEA445212F5800F80F09A803C
:1003D800BCF1004F08BF5FEA500C50F1000041EB40
:1003E800045141EA050130BD5FEA4C0C404141EB44
:1003F8000101013C28BFB1F5801FE9D291F0000F3F
:1004080004BF01460020B1FA81F308BF2033A3F1ED
:100418000B03B3F120020CDA0C3208DD02F1140CE4
:10042800C2F10C0201FA0CF021FA02F10CE002F11F
:100438001402D8BFC2F1200C01FA02F120FA0CFC18
:10044800DCBF41EA0C019040E41AA2BF01EB045161
:10045800294330BD6FEA04041F3C1CDA0C340EDC5F
:1004680004F11404C4F1200220FA04F001FA02F3A2
:1004780040EA030021FA04F345EA030130BDC4F160
:100488000C04C4F1200220FA02F001FA04F340EA55
:100498000300294630BD21FA04F0294630BD94F006
:1004A800000F83F4801306BF81F480110134013DED
:1004B8004EE77FEA645C18BF7FEA655C29D094EA5E
:1004C800050F08BF90EA020F05D054EA000C04BFDC
:1004D8001946104630BD91EA030F1EBF00210020C7
:1004E80030BD5FEA545C05D14000494128BF41F066
:1004F800004130BD14F580043CBF01F5801130BDCA
:1005080001F0004545F0FE4141F470014FF0000054
:1005180030BD7FEA645C1ABF194610467FEA655C05
:100528001CBF0B46024650EA013406BF52EA0335A7
:1005380091EA030F41F4002130BD00BF90F0000F95
:1005480004BF0021704730B54FF4806404F13204D1
:100558004FF000054FF0000150E700BF90F0000F8A
:1005680004BF0021704730B54FF4806404F13204B1
:1005780010F0004548BF40424FF000013EE700BF81
:1005880042004FEAE2014FEA31014FEA02701FBF11
:1005980012F07F4393F07F4F81F06051704732F043
:1005A8007F4208BF704793F07F4F04BF41F400219A
:1005B800704730B54FF4607401F0004521F00041F8
:1005C8001CE700BF50EA010208BF704730B54FF082
:1005D80000050AE050EA010208BF704730B511F083
:1005E800004502D5404261EB41014FF4806404F1BB
:1005F80032045FEA915C3FF4D8AE4FF003025FEA41
:10060800DC0C18BF03325FEADC0C18BF033202EBC4
:10061800DC02C2F1200300FA03FC20FA02F001FA1E
:1006280003FE40EA0E0021FA02F11444BDE600BFC1
:1006380070B54FF0FF0C4CF4E06C1CEA11541DBF70
:100648001CEA135594EA0C0F95EA0C0F00F0DEF83B
:100658002C4481EA030621EA4C5123EA4C5350EA20
:10066800013518BF52EA033541F4801143F4801371
:1006780038D0A0FB02CE4FF00005E1FB02E506F002
:100688000042E0FB03E54FF00006E1FB03569CF057
:10069800000F18BF4EF0010EA4F1FF04B6F5007F5D
:1006A80064F5407404D25FEA4E0E6D4146EB0606CF
:1006B80042EAC62141EA55514FEAC52040EA5E5058
:1006C8004FEACE2EB4F1FD0C88BFBCF5E06F1ED802
:1006D800BEF1004F08BF5FEA500E50F1000041EB39
:1006E800045170BD06F0004646EA010140EA0200E6
:1006F80081EA0301B4EB5C04C2BFD4EB0C0541EA08
:10070800045170BD41F480114FF0000E013C00F31C
:10071800AB8014F1360FDEBF002001F0004170BD40
:10072800C4F10004203C35DA0C341BDC04F1140459
:10073800C4F1200500FA05F320FA04F001FA05F2E5
:1007480040EA020001F0004221F0004110EBD370B2
:1007580021FA04F642EB06015EEA430E08BF20EADE
:10076800D37070BDC4F10C04C4F1200500FA04F381
:1007780020FA05F001FA04F240EA020001F0004113
:1007880010EBD37041F100015EEA430E08BF20EA86
:10079800D37070BDC4F1200500FA05F24EEA020ECE
:1007A80020FA04F301FA05F243EA020321FA04F0FD
:1007B80001F0004121FA04F220EA020000EBD370B4
:1007C8005EEA430E08BF20EAD37070BD94F0000FB4
:1007D8000FD101F00046400041EB010111F4801FE8
:1007E80008BF013CF7D041EA060195F0000F18BF99
:1007F800704703F00046520043EB030313F4801FD5
:1008080008BF013DF7D043EA0603704794EA0C0F8E
:100818000CEA135518BF95EA0C0F0CD050EA4106A4
:1008280018BF52EA4306D1D181EA030101F0004121
:100838004FF0000070BD50EA410606BF1046194649
:1008480052EA430619D094EA0C0F02D150EA013655
:1008580013D195EA0C0F05D152EA03361CBF104696
:1008680019460AD181EA030101F0004141F0FE4135
:1008780041F470014FF0000070BD41F0FE4141F4B9
:10088800780170BD70B54FF0FF0C4CF4E06C1CEAB9
:1008980011541DBF1CEA135594EA0C0F95EA0C0F6E
:1008A80000F0A7F8A4EB050481EA030E52EA033529
:1008B8004FEA013100F088804FEA03334FF080554A
:1008C80045EA131343EA12634FEA022245EA111577
:1008D80045EA10654FEA00260EF000419D4208BF28
:1008E800964244F1FD0404F5407402D25B084FEAD5
:1008F8003202B61A65EB03055B084FEA32024FF481
:1009080080104FF4002CB6EB020E75EB030E22BFDD
:10091800B61A754640EA0C005B084FEA3202B6EB9D
:10092800020E75EB030E22BFB61A754640EA5C004C
:100938005B084FEA3202B6EB020E75EB030E22BFDC
:10094800B61A754640EA9C005B084FEA3202B6EBDD
:10095800020E75EB030E22BFB61A754640EADC009C
:1009680055EA060E18D04FEA051545EA16754FEAFE
:1009780006164FEAC30343EA52734FEAC2025FEA1C
:100988001C1CC0D111F4801F0BD141EA00014FF0AB
:1009980000004FF0004CB6E711F4801F04BF01437C
:1009A8000020B4F1FD0C88BFBCF5E06F3FF6AFAE98
:1009B800B5EB030C04BFB6EB020C5FEA500C50F128
:1009C800000041EB045170BD0EF0004E4EEA1131AB
:1009D80014EB5C04C2BFD4EB0C0541EA045170BDB2
:1009E80041F480114FF0000E013C90E645EA060EF6
:1009F8008DE60CEA135594EA0C0F08BF95EA0C0F24
:100A08003FF43BAF94EA0C0F0AD150EA01347FF46B
:100A180034AF95EA0C0F7FF425AF104619462CE742
:100A280095EA0C0F06D152EA03353FF4FDAE1046A5
:100A3800194622E750EA410618BF52EA43067FF4F6
:100A4800C5AE50EA41047FF40DAF52EA43057FF486
:100A5800EBAE12E74FEA4102B2F1E04324BFB3F52F
:100A6800001CDCF1FE5C0DD901F0004C4FEAC0021D
:100A78004CEA5070B2F1004F40EB830008BF20F001
:100A88000100704711F0804F21D113F13872BCBFBB
:100A980001F00040704741F480114FEA5252C2F110
:100AA8001802C2F1200C10FA0CF320FA02F018BF59
:100AB80040F001004FEAC1234FEAD32303FA0CFCAC
:100AC80040EA0C0023FA02F34FEA4303CCE77FEA3B
:100AD800625307D150EA01331EBF4FF0FE4040F485
:100AE8004000704701F0004040F0FE4040F4000034
:100AF800704700BF80F0004002E000BF81F0004175
:100B080042001FBF5FEA410392EA030F7FEA226CAB
:100B18007FEA236C6AD04FEA1262D2EB1363C1BF3B
:100B2800D218414048404140B8BF5B42192B88BFAA
:100B3800704710F0004F40F4000020F07F4018BFCD
:100B4800404211F0004F41F4000121F07F4118BFED
:100B5800494292EA030F3FD0A2F1010241FA03FC95
:100B680010EB0C00C3F1200301FA03F100F000437D
:100B780002D5494260EB4000B0F5000F13D3B0F145
:100B8800807F06D340084FEA310102F10102FE2AB4
:100B980051D2B1F1004F40EBC25008BF20F0010024
:100BA80040EA03007047490040EB0000013A28BFC3
:100BB800B0F5000FEDD2B0FA80FCACF1080CB2EB46
:100BC8000C0200FA0CF0AABF00EBC25052421843C4
:100BD800BCBFD0401843704792F0000F81F4000169
:100BE80006BF80F400000132013BB5E74FEA41033C
:100BF8007FEA226C18BF7FEA236C21D092EA030FA8
:100C080004D092F0000F08BF0846704790EA010F21
:100C18001CBF0020704712F07F4F04D1400028BF4E
:100C280040F00040704712F100723CBF00F5000030
:100C3800704700F0004343F0FE4040F40000704766
:100C48007FEA226216BF08467FEA23630146420212
:100C580006BF5FEA412390EA010F40F48000704725
:100C68004FF0000304E000BF10F0004348BF4042CB
:100C78005FEA000C08BF704743F0964301464FF007
:100C880000001CE050EA010208BF70474FF0000363
:100C98000AE000BF50EA010208BF704711F00043A4
:100CA80002D5404261EB41015FEA010C02BF844674
:100CB8000146002043F0B64308BFA3F18053A3F5D3
:100CC8000003BCFA8CF2083AA3EBC25310DB01FA1A
:100CD80002FC634400FA02FCC2F12002BCF1004F9E
:100CE80020FA02F243EB020008BF20F0010070472F
:100CF80002F1200201FA02FCC2F1200250EA4C0083
:100D080021FA02F243EB020008BF20EADC707047C8
:100D180053B94AB9002908BF00281CBF4FF0FF315A
:100D28004FF0FF3000F00CB8ADF1080C6DE904CEBF
:100D380000F008F8DDF804E0DDE9022304B07047AC
:100D4800704700BF2DE9F04786468C460846089E46
:100D5800154674461946002B40F0C1808542B2FA08
:100D680082F245D94AB1C2F1200300FA02FC95404B
:100D780094402EFA03F343EA0C0C4FEA154EA8B23E
:100D8800230CBCFBFEF80EFB18CC08FB00F943EA69
:100D98000C43994528D9EB1808F1FF3704D2994537
:100DA80002D9A8F102072B44A3EB0903A4B2B3FBB1
:100DB800FEFC0EFB1C330CFB00F044EA0344A0428B
:100DC80014D92C190CF1FF3304D2A04202D9ACF18A
:100DD80002032C44241A43EA07401EB1D4400023DE
:100DE80034607360BDE8F0874746DDE76346F1E7A6
:100DF80092BB431B01214FEA154EAFB2200CB3FB47
:100E0800FEFC0EFB1C330CFB07F840EA0343984535
:100E180061D9EB180CF1FF3004D2984502D9ACF136
:100E280002002B44A3EB0803A4B2B3FBFEFC0EFBA9
:100E38001C330CFB07F744EA0344A7424DD92C198D
:100E48000CF1FF3304D2A74202D9ACF102032C44BF
:100E5800E41B43EA0040C0E7C2F1200395409440F8
:100E680020FA03F12EFA03F34FEA154E9040AFB281
:100E78000343B1FBFEFC0EFB1C10190C0CFB07F81E
:100E880041EA0041884522D969180CF1FF3004D2A3
:100E9800884502D9ACF102002944A1EB08019BB2B4
:100EA800B1FBFEFC0EFB1C110CFB07F743EA0143E8
:100EB8009F420ED9EB180CF1FF3104D29F4202D9A0
:100EC800ACF102012B44DB1B41EA004193E7604689
:100ED800E3E76146F7E76046A4E76346B8E783427D
:100EE80006D916B9002108467CE7C6E900E0F9E70B
:100EF800B3FA83F78FB9834201D3724508D8BEEBA2
:100F0800020460EB030301209C461EB9002169E737
:100F18003846FAE7C6E9004CF8E7C7F1200CBB40B1
:100F28000EFA07F522FA0CF42EFA0CF1BA401C431B
:100F380020FA0CF3B8404FEA144901431FFA84FE23
:100F4800B3FBF9F809FB18300B0C08FB0EFA43EA5F
:100F580000439A4540D9E31808F1FF3004D29A4576
:100F680002D9A8F102002344A3EB0A0389B2B3FB18
:100F7800F9F809FB183308FB0EFE41EA03418E45D8
:100F88002CD9611808F1FF3304D28E4502D9A8F193
:100F98000203214443EA0040A1EB0E01A0FB0298A2
:100FA8004145CE46434602D306D14D4504D20138C9
:100FB800B9EB020E68EB0403002EA7D0B5EB0E02C6
:100FC80061EB030101FA0CFC22FA07F3F9404CEA41
:100FD8000303C6E9003199E74046C5E74346D9E728
:100FE80010F8012B11F8013B012A28BF9A42F7D0CB
:100FF800D01A7047034611F8012B03F8012B002A79
:10100800F9D17047034613F8012B002AFBD1181AAF
:1010180001387047000000002DE9F74F4FF0665A7D
:101028004FF00008DFF80091404C23783BB9237853
:10103800002BF9D141F288300CF0DCF9F7E70CF01D
:10104800C8F93B4D3B4E28600CF0C3F93A4B306071
:101058001868836839495B689847394B394FB3F941
:101068000000FFF701FE5146FFF772F8FFF788FA14
:101078002BA3D3E90023FFF7DBFA42464B46FFF7E1
:10108800D7FAFFF7E7FC0146FFF73AFD38604B2037
:101098000CF0CFF93C200CF0D0F9C8200CF0AAF9DC
:1010A8004CF2503B00F0A0FA5845274C2FD900F0DD
:1010B8008DFA58452BD90123002023600CF0B9F98B
:1010C80000200CF0BAF93868FFF75AFA1F4F0B46A0
:1010D80002461F4938460AF061FF22681D491E482A
:1010E8000AF05CFFF0211C4B1C4A00971C480AF0D0
:1010F80029FF1B4800F052FB0CF06BF92B6830609D
:1011080003F56A436033181A0CF074F98CE74FF052
:10111800000B5846C4F800B00CF08BF95846D0E7DD
:10112800333333333333E33F00001840661F002066
:10113800FC130020F813002048020020340200208D
:10114800441F00200014002004140020C9050020BA
:101158006445010069450100EE0500206C45010069
:10116800150600201FB50223CDE901018DF80C30CA
:101178000122572301A903480CF024F905B05DF8B2
:1011880004FB00BFE0340100084B1A691268D20161
:1011980048BF80F0010028B19B68DB684FF0807180
:1011A800024818479B681B69F8E700BF68340100CC
:1011B80037B50446C9B901250D4B01A91D700D4B62
:1011C8001868019020460EF07FFA0B490B4B204619
:1011D8000B6005F07DFE2846FFF7D6FF032108487F
:1011E80003B0BDE8304000F0E9BF03B030BD00BF38
:1011F800661F00200039010008140020F5D3000004
:10120800E03401000022064B0321C3F80425042220
:10121800C3F810250122DA60C3F808151A60704770
:1012280000F000500122044B5A64D3F844054FF4EF
:101238007A73B0FBF3F0704700F0005010B500244B
:10124800084B20461C70FFF79FFF20460CF0F1F872
:1012580020460CF0F2F8BDE810400221024800F0E8
:10126800ADBF00BF661F0020E03401001FB50C4B66
:10127800202828BF20200193032302908DF80C30EA
:101288000122572301A907480CF09CF800222020CE
:10129800054B1A70054B187005B05DF804FB00BFCC
:1012A800691F0020E0340100681F0020671F00202C
:1012B800064A074913780978994281BF0549C85CED
:1012C8000133137098BF4FF0FF307047681F00203C
:1012D800671F0020691F0020034B1878034B1B78F9
:1012E800C01AC0B2704700BF671F0020681F0020E7
:1012F80010B588B00DF10703029301230F4A039339
:10130800CDE905230723002402228DF807008DF874
:101318001C300B48572302A98DF810400CF052F8E6
:101328002022084B1C70084B1A70FFF7D5FF10B12C
:10133800FFF7BEFFC0B208B010BD00BF691F002094
:10134800E0340100681F0020671F002008B5FE2058
:10135800FFF7CEFF014B187008BD00BF8A1F0020A1
:1013680038B50CF0CBF8504B1B78012B47D1002037
:101378004E4C0CF08BF80CF08EF82378032B51D1DF
:1013880007200CF08DF84A4B22781A70494B1B68DD
:10139800B3F5805F4BDA00200CF087F8464B1B68EA
:1013A800632B51DC00200CF085F8444B1B68752B2F
:1013B8006ADC0020424D0CF082F828780CF039F8ED
:1013C80028780CF03AF828780CF03BF828780CF0DC
:1013D8003CF8012108460CF077F82378012B03D953
:1013E800022108460CF070F82378022B03D9032158
:1013F80008460CF069F8BDE838400CF02AB8102B04
:101408000ED005D8022B07D0082B07D04020AFE715
:10141800202BFBD1A020ABE72020A9E76020A7E77D
:101428008020A5E7022B0CBF03200220A9E7B3F513
:10143800005F01DA2020AFE7B3F5804F01DA4020E2
:10144800AAE7A8D16020A7E7C72B01DC0420AAE7F8
:10145800B3F5C87F01DA0820A5E7B3F5487F01DABC
:101468000C20A0E7B3F57A7F01DA10209BE7B3F5EB
:10147800C86F01DA142096E7B3F5486F01DA18202F
:1014880091E78FD11C208EE7D62B01DC012091E754
:10149800B3F5CD7F01DC02208CE740F29B1293422A
:1014A80087D1032086E700BF3D0600203C060020C8
:1014B800891F00204C020020540200205002002006
:1014C8003E0600202DE9F3410CF039F804460CF0F3
:1014D80039F884420ED03A4F001B3C7848BF203080
:1014E800444301213748FFF73DFE374E04EB4404DF
:1014F800002C03DC012002B0BDE8F081202CC5BF20
:1015080020253B78254603EB4303C4BFB5FBF3F521
:101518005D43E8B2FFF7AAFE4FF00008641B002DF8
:10152800E6DD96F830308DF80780013303F00303C9
:1015380086F83030FFF7BCFE8DF80600FFF7B8FEDE
:101548008DF80500FFF7B4FE8DF80400019B96F8AE
:101558003020C3F3110346F822303B78012B13D90E
:10156800FFF7A6FE8DF80600FFF7A2FE8DF805002E
:10157800FFF79EFE8DF8040096F83030019A043388
:10158800C2F3110246F823203B78022B13D9FFF748
:101598008FFE8DF80600FFF78BFE8DF80500FFF72C
:1015A80087FE8DF8040096F83030019A0833C2F3AC
:1015B800110246F823203B78A3EB83031D44AEE7D2
:1015C800891F00204E4601000C14002008B5FA209F
:1015D8000BF0BBFF20B1034B93F8302053F82200E7
:1015E80008BD00BF0C14002008B5FA200BF0ADFFB1
:1015F80028B1034A92F83030043352F8230008BD6A
:101608000C1400202DE9F04389B0814600AF0C4648
:1016180016461D46DFF86880404610F083FF40B943
:101628001848D8F800100CF044F82437BD46BDE837
:10163800F083EB1D23F00703ADEB030D3B1DBB60EF
:101648000123FB6003233C7100243B7702224B46B5
:10165800404607F108013C74C7F814D0BD610BF08F
:10166800B1FEA04205DA08480CF023F84FF0FF302D
:10167800DBE72A466946304611F05AFE2046D4E791
:10168800E03401008C450100A74501002DE9F04731
:1016980084B0054600AF884616461C46DFF86C90B5
:1016A800484610F03FFF40B91948D9F800100CF02F
:1016B80000F81037BD46BDE8F08704F1080323F0B1
:1016C8000703ADEB030DEA4604F101098DF800802C
:1016D8002CB1224631460DF1010011F029FE0024FB
:1016E8002B4601220948391DC7E901A93C730BF0B3
:1016F80069FEA04205DA07480BF0DBFF4FF0FF3028
:10170800D7E705480BF0D5FF2046D2E7E0340100C3
:101718008C450100D6450100FB45010013B5194C65
:101728000BF0A5FF0BF002FF206810F0FBFE30B3B2
:101738002068836814491B68984700BB07F030F994
:10174800E8B902F0A5FCD0B9104803F037FD0BF05A
:10175800ACFFA0B90123022200930D490D4B0E489E
:1017680003F07AF8044650B9FFF70EFD20460BF057
:1017780060FE204602B0BDE810400BF05EBE02B02D
:1017880010BD00BF480200205C450100080200208F
:10179800A03C0100983C01002002002030B587B031
:1017A8000546FFF72FFC044618220021684611F071
:1017B800CCFD064B69460020CDE90135ADF80C405B
:1017C80005F094FAC0B207B030BD00BFD83C0100A4
:1017D800014B1B68184700BF60020020014B1860CE
:1017E800704700BF6002002030B585B004460D4642
:1017F80010220021684611F0A8FD02238DF802305E
:10180800044B2A462146684601930AF089FC05B034
:1018180030BD00BFD917000080B505460E461746F3
:10182800984609F0D9FE034611F0A0FD0446DFF8FA
:101838001890424649F8003039463046A84754F8CF
:10184800090001F0CBFA00BF080000002DE9F047BD
:10185800058B04462807904611D4022905F0070590
:1018680040F0CD8020460CF0DEF978B10138218BAC
:10187800042811D8DFE800F0C3106D859500012910
:101888000CBF45F0100545F02005258388F3118825
:10189800BFF36F8FBDE8F08701F0070AAA4500F093
:1018A800A6800027B9463E46A368002B00F0BD80FD
:1018B80041F00801218388F31188BFF36F8FA16875
:1018C800002900F0BB800D68002900F0B78033467E
:1018D80052462046D1F80480C047002D76D02B68A8
:1018E80029461D46F0E701F007035A1F012A1BD8B5
:1018F800002221F00701062B276889B2C4E90022DB
:1019080009D13B4603E0628B013262831B68002BDE
:10191800F9D141F00201204621830CF084F9002816
:101928007BD041F0200177E0042B0AD121F0070198
:1019380089B2204621830CF076F910B141F02001DC
:101948002183218B01F0070AAA4550D00027B94608
:10195800AAE7236921F0070141F00601062DD3F813
:10196800009021832DD1B9F1000F40D041F008013A
:10197800218388F31188BFF36F8F20463949C84700
:1019880029E021F00701236941F0040189B2042DFF
:10199800D3F804902183E6D000274FF0040A3E468E
:1019A80082E721F00701236941F0050189B2052D7D
:1019B800D3F808902183D6D000274FF0050A3E4679
:1019C80072E700274FF0060A3E466DE72B4687E789
:1019D800B9F1000FD1D14FF02003EFF3118883F351
:1019E8001288BFF36F8F238B23F008032383258B83
:1019F800EA062ED525F01003238305F0070566694E
:101A0800218B002EBFF66FAF00232768C4E900338F
:101A180021F0070141F001012183218B4FF00009DA
:101A280001F0070AAA457FF43FAF002F9BD041F091
:101A38000801218388F31188BFF36F8F002FC7D067
:101A48003D6839463346524620460CF018F92F4671
:101A5800F4E7AB067FF51AAF25F02003238305F0E2
:101A68000705FFE6B3DC0000044608B54FF0200286
:101A7800EFF3118382F31288BFF36F8F06F058FFDC
:101A8800204601F061F903480BF013FE00F058FE00
:101A9800FCE700BF6046010000F01F0240090DD0BE
:101AA80001280DD1094B03EB8203D3F8002222F061
:101AB800E04242EA0171C3F800127047044BF2E7B2
:101AC8000023803253F82230FFDE00BF0028845004
:101AD8000025845038B50124134B144DC3F8004534
:101AE80002230321C5F8D0360020FFF7D5FF204692
:101AF8000321FFF7D1FFC5F804472146C5F804497B
:101B08002120C5F8004BFFF7C7FF21462020FFF72B
:101B1800C3FF21460B20FFF7BFFF21460A20FFF72E
:101B2800BBFF002038BD00BF00100050004000502F
:101B380007B50DF107000FF085FD114B98421CD138
:101B48004FF480620F4B1049C3F8B8254FF4006278
:101B5800C3F83C259DF807000FF068FD0B499DF878
:101B680007000FF05EFD01209DF80730984007F050
:101B78005DF8002003B05DF804FB6FF00B00F9E797
:101B88000000AD0B00A002502CA0025028A102506A
:101B9800052370B5144D154E2C780134B4FBF3F3BE
:101BA80003EB8303E41A0FF001FD114A137823B104
:101BB80056F82430C01A072814D94FF05023D3F808
:101BC800141141B10021C3F81411D3F814312C7049
:101BD8000CB9012313702C780FF0E8FC46F82400A8
:101BE800012070BD0020FCE78C1F00205814002045
:101BF8008B1F002048B1054B054A1B68B3FBF2F365
:101C08005843044B43F00103184770473004002041
:101C180040420F00003A010006F0EABE0020014BE6
:101C2800186070470000072030B50C460E4985B093
:101C38000291D0F8AC110546CDE9003100F1E00180
:101C48004FF0FF33204608F065FA50B9012384F8B5
:101C58006430D5F8A83123B1204605B0BDE830403E
:101C6800184705B030BD00BFCBDF000038B50C46C3
:101C7800114605460CF0A7F9034638B92846044929
:101C88000CF0A1F903460020236038BD0120FBE7D2
:101C9800844C01002DE9F04F01238146056946680F
:101CA80085B005F55977D7E8EF2F002A03D1C7E8A3
:101CB800E13F0029F7D10CBF1A46002240F0B1805D
:101CC800B368B16A05F5E4781C1F10460CF000FAF9
:101CD80084425FD8013A00F09E80B2FA82F24FF057
:101CE8000044D44072682046073222F00302C5F847
:101CF8006022B16A0CF0ECF9C5F86402B36A404698
:101D08006343033323F0030302EB4302230103EB92
:101D18004403093323F0030303EBC403C5F8582233
:101D28001A440832C5F854227368C5F85C42C5F8ED
:101D380050323D4BC5E9A963316800F0BDF904464E
:101D480030BBD9F804A0D9F81090DAE9073409F5BE
:101D5800307B012B584608BF103C10F022FE0023B0
:101D6800DAF8240031494FF4806201EB80210093B6
:101D78005846234609F07AF809F52C702C4910F0DA
:101D8800D2FDDAF8140083685C682CB96FF0570448
:101D9800002139E0013298E74B46264ADAF8181054
:101DA800A04704460028F3D1DAF8140083681B69B9
:101DB800002BEBD00122DAF81810984704460028C7
:101DC800E6D11D4B2846C5F8A8311C4BC5F8AC31E7
:101DD8001B4B0393D5F810320293D5F80832CDE99E
:101DE8000083D5F86832B26AD5F8601300F02CF990
:101DF80004460028CCD105F1E00008F039FA0028A3
:101E0800C5F868030ADB022138460CF011F92046B0
:101E180005B0BDE8F08F6FF00B04B9E76FF015045B
:101E2800B6E76FF07704F2E721E00000A82700206A
:101E380007E00000FBDF00004D1E0000AFE10000DE
:101E480069E0000013B5044640B100230122CDE942
:101E58000032074BD0E9091208F010F9A36E1B688D
:101E680023B1E06E02B0BDE81040184702B010BDC3
:101E7800844C010013B504460846216901F55971DF
:101E8800D1E8AF1F022910D193B1A0B10121CDE94A
:101E980000311346D0E9091208F0F0F8074B9842D0
:101EA80008BF6FF00B0002B010BD6FF00F00FAE72B
:101EB8006FF04C00F7E76FF00100F4E72EF8FFFF32
:101EC8002DE9F74388461546066906F55973D3E8A0
:101ED800AF3F022B5FD1136823B96FF0150003B031
:101EE800BDE8F0831B78002BF7D0D6F86093B9F1E2
:101EF800000F33D106F5D8774FF0FF324FF0FF339C
:101F0800384608F047FD30462A6801A9FFF7AEFEBB
:101F1800019C1CB938460CF089F8DEE705F1080386
:101F2800A3666B6984F86490E366E46360B138463D
:101F38000CF07CF821463046236E2A68FFF774FEC1
:101F48000020C8F80040CAE72022296804F14000B0
:101F580011F0B4F838460CF069F8F1E730460F494B
:101F68000CF031F804460028B7D005F10803836661
:101F78006B69C063C366002380F864302022296837
:101F8800403011F09BF822460121304600F03EF81F
:101F98000028D5D0A1E76FF00F00A0E7844C01001E
:101FA8002DE9F04F05460E4690460027D0F8B0A020
:101FB80085B0AAF5AE7421463046FFF711F8E0B9AE
:101FC800114BA4F1400B0293DAF810303246CDE9F8
:101FD800008329464FF0FF335846AAF5CE7908F01A
:101FE80099F860B97023012203FB079383F86420F2
:101FF800DAF80C300BB158469847703417B105B071
:10200800BDE8F08F0127D6E711E200001FB514469E
:1020180090B18AB1012912D10A4B00F1E001029373
:10202800D0F8AC31403201934FF0FF332046009393
:1020380008F070F804B010BD6FF01500FAE7002042
:10204800F8E700BF11E200002DE9F04387B00E4623
:10205800DDE90E811446DDE910251F4630B329B3AA
:10206800DFF850C000F1E009002D08BF65469EB9B1
:10207800CDE9034400F5CE742046059610F038FAF1
:1020880003ABCDE900432A463B464146484608F0A3
:1020980015F907B0BDE8F083002241460E92484684
:1020A8002A4607B0BDE8F04308F032BA6FF01500D1
:1020B800EFE700BFA91F0000F0B50E46044689B03F
:1020C80000286FD001230246C3630023D0F898107C
:1020D800364F403040F80C7C42F8301FCDE90133D0
:1020E8004FF0FF330093C36D0FF0C2FC304A06ABCC
:1020F80092E8030083E80300184607F0D1FE05467E
:10210800D8B904F1340007F0ADFE0546A8B9394640
:10211800284805AA0FF088FC054670B9059B9A68FF
:1021280072B10C33D4F89400C4F8A0300CF09DF8C8
:10213800C4F8D40030B96FF00B05284609B0F0BDDB
:102148000346EFE7D4F894000CF08FF8C4F8D800F1
:102158000028F0D0D4F88C30D4F8A010C4F8A830F7
:102168000423C4F8AC30C4F8C4300223A362124B71
:10217800B4F89420D4F8D470C4F8B810C4F8D010C7
:10218800D4F89010236204F1A403A4F8B020C4F892
:10219800A470C4F8C010A4F8C820C4F8BC00A66194
:1021A800E362CAE76FF01505C7E700BF9E46010066
:1021B800C0380100A84601002C3D010070B54469F3
:1021C80003460D468CB30CF097F888BB1D48227A5D
:1021D800465CB2422FD01C48405C90422ED1184633
:1021E800E2689047002811DA022D0DD0032D0CD19A
:1021F80010F1860F08D0231DD3E8EF1F41F002012C
:10220800C3E8E21F002AF7D1267270BD022D26729C
:1022180001D00020F9E70434D4E8EF3F23F00203AB
:10222800C4E8E23F002AF4D0F6E76FF05700ECE785
:102238004FF0FF30E9E76FF07700E6E76FF08500D1
:10224800E3E700BFD3460100CF4601000449431E1F
:102258000F3013F8012F8A5C83421A70F9D1704746
:10226800D7460100F0B50746264E8DB001AD0C46A5
:102278000FCE0FC50FCE0FC596E8070085E80700FB
:102288003846002F39D0002C39D0381F0246214655
:1022980010344B780D781B0443EA0563CD7804317C
:1022A8002B4311F8025C8C4243EA052342F8043FB1
:1022B800EFD10421144C8A07036916D1C3F30742EE
:1022C800A55C1A0EA25C42EA0562C3F30725655DA8
:1022D800DBB2E35C42EA054242EA032221F003034F
:1022E80030336B4453F82C3C534050F8042F0131E1
:1022F80053402C290361DED101200DB0F0BD2046EA
:10230800FBE700BFC8380100D74601002DE9F04FB0
:10231800002703689DB002934368DFF8BCA10393CC
:102328008368DDE902460493C36805930369DDE920
:1023380004BE0693436907938369DDE9062C089375
:10234800C36998460993089B0093CD590CAB2DBAE5
:102358005AF8049BDD514FEAF223A94483EAB213E9
:10236800009D83EA72634B4425EA020502EA0C09E0
:1023780085EA09052B44434486EA0B054FEA74387D
:1023880088EAB408254006EA0B0985EA090588EABF
:10239800B4580437A844402F03EB0E054344DE46E7
:1023A800DDF8008040F088804FF0100A4B490A9110
:1023B80051460AF1010A0DF1700E0AF00F070EEBF3
:1023C800870757F8407C01F00F094FEAB748019793
:1023D80088EAF71801F10E0707F00F070EEB8707D9
:1023E80057F8407C09314FEAF74E8EEA774ECDF820
:1023F8002CE001F00F010DF1700E0EEB81010EEBD8
:10240800890959F840EC51F8401CBAF1400F714461
:10241800DDF804E088EADE08DDF82CE041448EEAC5
:10242800972E714405EA02084FEAF52E2CEA0507B3
:1024380087EA08078EEAB51EDDF828808EEA756EF1
:10244800774458F804EF49F8401C77440F44009942
:102458004FEA733E394484EA0607CDF828808EEAAD
:10246800B30E07EA030704EA06088EEAB35E87EAB2
:10247800080777440F4401EB0B0ECDF800C0B346B4
:1024880022D102993944016003991944049B41609F
:1024980023448360059B3344C360069B73440361F4
:1024A800079B2B444361089B13448361099B634446
:1024B800C3611DB0BDE8F08FB346CDF800C0264615
:1024C80094461C462A4640E7944626462A461C4619
:1024D80075463B466CE700BF583D0100943D01003E
:1024E80010B50446C8B1702200210BF01AFF0B4B3F
:1024F8000B4A0C49C4E900230B4B0C48C4E90213EE
:102508000B4BC4E9040301200A4BA36103F1745384
:10251800A3F52303A3F69243E36110BD85AE67BB21
:1025280067E6096A72F36E3C3AF54FA57F520E5181
:102538008C68059BABD9831F014809F0C1BB00BF5C
:10254800583E010038B5044618B90F4B0F485B6870
:1025580098476168B1F5683F10D0B1F5680F0DD0A4
:102568000B4DA9420AD011F46861206807D00146D2
:10257800084810F072F800232360656038BD142203
:1025880010F0E3FEF9E700BFF0040020D747010090
:102598002C5F5CA96C19002008B560B34368B3F5DB
:1025A800683F0ED0B3F5680F18D0144A934220D074
:1025B80000684FF0FF324FF0FF3308F0EBF958B1E5
:1025C80015E001220368D3E8EF1F002903D1C3E80F
:1025D800E02F0028F7D10AD1002008BD0368084A77
:1025E8001B7803F5807352F82330002BF4D005488C
:1025F800F3E70548F1E76FF4E040EEE72C5F5CA9EC
:1026080000000350E98FFFFFEA8FFFFF08B520B3F2
:102618004368B3F5683F09D0B3F5680F13D0114A82
:1026280093421DD0006808F02FFA14E000220368D6
:10263800D3E8EF1F012903D1C3E8E02F0028F7D121
:1026480009D0094808BD00210368084A1B7803F52A
:10265800807342F823100020F4E76FF4E040F1E7BC
:102668000348EFE72C5F5CA9E98FFFFF00000350E8
:10267800EA8FFFFF10B5044618B91D4B1D485B686B
:1026880098476368B3F5683F2FD0B3F5680F2CD02F
:10269800194A934219D1236803BB4FF0FF324FF018
:1026A800FF332146154808F081F808B923681BB99B
:1026B8000F4B13485B68984714220021206810F0DC
:1026C80044FE4FF46863636008E0B3F5683F0DD8D3
:1026D8003A2B03D040F6BA629342DED1206810F05C
:1026E80001F8636843F03A03636010BD054AF3E7F5
:1026F800F0040020D74701002C5F5CA96C1900206A
:10270800FD4701003A00003A08B506494023142263
:1027180005480FF094FFBDE808400449044809F053
:1027280041BB00BF6C1400206C190020603E010002
:10273800743E0100014910220A60704710ED00E064
:1027480072B6404080F31188BFF36F8F01B5FFF771
:102758001FFA00280AD0BFF34F8F30BF00BF00BF59
:1027680000BF00BF00BF00BF00BF00BFBDE8014001
:1027780062B6BFF36F8F704772B6494081F3118814
:1027880001B5FFF705FA00280AD0BFF34F8F20BF25
:1027980000BF00BF00BF00BF00BF00BF00BF00BF39
:1027A800BDE8014080F3118862B6704740B2002846
:1027B80007DB01234109034A00F01F00834042F868
:1027C8002130704700E100E040B200280CDB012214
:1027D8000649430900F01F008240203341F82320B6
:1027E800BFF34F8FBFF36F8F704700BF00E100E06A
:1027F800054B420953F82220012300F01F0003FA79
:1028080000F01040704700BF00E100E040B200282F
:1028180001F10101ACBF00F16040064B4FEA4111E4
:10282800C9B2ABBF00F5614000F00F0080F800139B
:102838001954704714ED00E030BFFFF7FDBF00BF2B
:102848000B4A08B50B4B22F07F029A60BFF34F8FFB
:10285800BFF36F8FD3F8882022F47002C3F8882062
:1028680007F0C6FE08F030FF00F032FA07F00AFF62
:102878000000000000ED00E0094A0A499368096871
:102888009867D96708494B6843F080534B60002329
:1028980083F31188BFF36F8F9368D86F704700BFB9
:1028A800341D00200C44010000ED00E016498A6840
:1028B8004FF030001044EFF3098C80E8F01F20201F
:1028C80080F31288BFF36F8F104F4FF000664A698C
:1028D8008A603E604FF07404141920680C4C206024
:1028E800906F0023936780F3118802F1300090E81D
:1028F800F01F8CF3098802F1000004B50CF06DF9A3
:10290800BDE8044070470000341D002004ED00E0DD
:10291800881900201EF0040F0CBFEFF30880EFF3B6
:102928000980816911F8021C0229FFD001B50CF059
:1029380045F901BD42F8203C009B0B4942F81C3C7C
:10294800019B21F0010142F8183C029B42F8081C47
:1029580042F8143C4FF0807342F8043C0023203ABC
:1029680002658367704700BF211800000A4B446F57
:1029780098600A4B1C60436E83F30B88104681F302
:102988000988002163B681F31188BFF36F8F002295
:102998000023FEF741FF00BF341D002088190020E6
:1029A80001B5EFF30580A0F110004FEAC00004491B
:1029B800014409C99847BDE8014002490847000099
:1029C800F83401002D2A0000114B124A2DE9F0417C
:1029D800D518013DB5FBF3F5DFF83C805D430F4B9F
:1029E800074608EB0304013CB4FBF3F403FB04546F
:1029F8000E1B30460A4910F09BFC70194246002114
:102A0800083E10F0A2FC7E6704F10800BDE8F081E2
:102A180001000000000000000400000004000000A5
:102A2800B4380100044B99685869884203D00349B7
:102A38004FF080520A607047341D002004ED00E01A
:102A4800154B9A6A12F0007F9A6A14BF1E201D2047
:102A580012F0807F9A6A18BF1F2012F4801F9A6AAA
:102A680018BF022012F4002F9A6A18BF212012F40E
:102A7800802F9A6A18BF222012F4003F9A6A18BF62
:102A8800232012F4803F9A6A18BF24206FEA02427A
:102A98006FEA12429A62704700ED00E010B5194BD8
:102AA8000246986A9C6A10F4805F14BF17201620AB
:102AB80014F4006F9C6A18BF1820A40509D5986BF8
:102AC800986A000404D51AB19A6A22F400429A62FC
:102AD80019200C4B9A6A12F4806F9A6A18BF1A2050
:102AE800D2050CD49B6A13F4005F18BF1C20054A5A
:102AF800936A43F47F43936200230B7010BD1B203D
:102B0800F5E700BF00ED00E010B51C4B0246986ADF
:102B18009C6A10F0100F14BF1120102014F0080F39
:102B28009C6A18BF1220A40709D5586B986A00063A
:102B380004D51AB19A6A22F080029A6213200F4BC8
:102B48009A6A12F0010F9A6A18BF142012F0200F27
:102B58009A6A18BF1520D40658BF9B6A074B9A6A11
:102B6800920642BF5A6A22F400525A629A6A42F0A6
:102B7800FF029A6200230B7010BD00BF00ED00E059
:102B8800F0B5474B04465B6800258BB0C3F30803D8
:102B980085F31188BFF36F8F02F07F40B0F17F4F4C
:102BA80011D102F00C0008280DD010074CBF0C46BC
:102BB80001250022033B8DF80720032B05D8DFE809
:102BC80003F02462665F2C46F3E700239DF8072094
:102BD800CAB902AE04F12007324620686168083499
:102BE80003C2BC421646F7D1099A002D53D0C2F34E
:102BF800080121B96FEA52226FEA42220992184667
:102C080002A90BF0D9FF0BB0F0BD254BDA6A91078A
:102C1800DBD4DA6A002AD8DBDA6A5200D5D55A69D9
:102C2800A16942F480725A61BFF34F8FBFF36F8F6F
:102C38005A6931F8021C22F480725A61BFF34F8F2F
:102C4800BFF36F8F4DF60272914209D09A6AD2B2E1
:102C580042B101200DF10701FFF756FF0346B5E722
:102C68002368B3E79A6A12F47F4F05D001200DF16B
:102C78000701FFF713FFF1E79B6AB3F5803FA4D381
:102C8800FFF7DEFEEAE700200DF10701E4E7002088
:102C98000DF10701EDE722F4FF7222F00102ADE722
:102CA80000ED00E0044B5A6942F010025A615A697B
:102CB80042F480625A61704700ED00E0EFF308804B
:102CC800EFF3098101B57246FFF75AFF01BD00BF56
:102CD800002320210348C2180133452B82F8001332
:102CE800F9D1704700E100E0002080F31488BFF3B9
:102CF8006F8F002080F30A8880F30B88FEF78CFF23
:102D080000200E490860BFF34F8F0D4880F30888F4
:102D180000F03EF8202080F311880A484FF4006143
:102D2800401880F30988EFF314800221084380F3E8
:102D38001488BFF36F8FFFF783FD000094ED00E068
:102D480058470020183A0020BFF34F8F0549064B1B
:102D5800CA6802F4E0621343CB60BFF34F8F00BF31
:102D6800FDE700BF00ED00E00400FA050023184667
:102D78000649D1F89020C2F30722934200DB70473E
:102D8800C1F89830C1F8A0000133F6E700ED00E083
:102D980010B572B6002484F31388FFF7E7FF2346C3
:102DA8004FF0FF300C4A03F120010133102B42F899
:102DB8002100F8D100234FF0FF30074A03F16001EA
:102DC8000133102B42F82100F8D162B6BFF34F8FC0
:102DD800BFF36F8F10BD00BF00E100E0084B9B6898
:102DE80083420BD1EFF3058343B1064B5A6842F097
:102DF80080525A605A6A22F400425A6208F0F2BBC2
:102E0800341D002000ED00E01FB5094C094A234697
:102E18000121094800F0EAF800230393074B012138
:102E2800E41A01A80193029400F0EAF804B010BD76
:102E38000000072000000020843E0100280900202F
:102E480010B50C7A0B6804F01F0223F01F031A4315
:102E5800CB68640923F01F03054943EA440343F0A0
:102E68000103C1F89800C1F89C20C1F8A03010BD3A
:102E780000ED00E02DE9F04F0F46144606464FF0EE
:102E880000084E4D85B0B84580F29480D6F804907D
:102E9800B9F1000F36D0B9F11F0F40F2898019F04F
:102EA8001F0F40F08580D6F800A01AF01F0F7FD1C1
:102EB80050460BF096FE834609EB0A0001380BF0EA
:102EC80090FE834574D11BF1160F71D05C456FDD00
:102ED800C5F898B0D5F89C10C5F898B0D5F8A030CA
:102EE80021F01F0143F01F0AD6E900321A44994223
:102EF80002F1FF391ED1CA4508D131465FFA8BF07D
:102F08000BF078FE08F101080C36BCE73146C5F82D
:102F180098B0D5F89C3022F01F0203F01F0313432A
:102F2800C5F89C30E0B20BF065FE10F1160F3FD0EB
:102F3800441CE7E7C5F898B0D5F8A020013B23F07A
:102F48001F0302F01F021343CA453146E0B2C5F819
:102F5800A030E8D00BF04EFE10F1160F28D0C5F8BF
:102F680098B0D5F89C209DF808300AF1FF3A62F332
:102F780004038DF80830D5F8A0309DF808205B08C8
:102F880063F347128DF80820D6E900321344009302
:102F980023F01F03411C5344A3EB0903C8B223F0D9
:102FA8001F030728039303D86946FFF749FFBFE7C4
:102FB8006FF01504204605B0BDE8F08F00ED00E085
:102FC8000522044BC3F89420BFF34F8FBFF36F8FD4
:102FD800704700BF00ED00E0BFF35F8F0022024B97
:102FE800C3F89420704700BF00ED00E010B5034C13
:102FF8002278FFF73FFF207010BD00BF8D1F002013
:103008002DE9F74F294D8A4606464FF00008AB4692
:10301800274FD0451BDAD6F80490B9F1000F3FD0FE
:103028003168084601910BF0DCFD0199044609EB73
:10303800010001380BF0D5FD84424FF014021D4BFE
:1030480008D002FB08F36FF015024BF8032003B019
:10305800BDE8F08F14F1160F2C60F8D01978A14252
:10306800F5DD02FB08B0C7F89840C7F89840D7F8D4
:103078009C4000F10801007B64F304000871D7F854
:10308800A0000C79400860F347140C71D7F89C1025
:1030980021F01F016960D7F8A01021F01F012961F4
:1030A80008F1010814350C36B3E700BF8C1900206D
:1030B80000ED00E08D1F002038B50E4D2C68082C5F
:1030C80015D80020FFF788FF0B4B0C4AC3F8C02027
:1030D800844205D10A4B00201C70FFF771FF38BDF0
:1030E800696801EB0011FFF7ABFE0130F0E74FF024
:1030F800FF30F4E7903E010000ED00E0AAFF440035
:103108008D1F002008B5024B1B689847002008BD9A
:10311800A0190020034B044A1860937843F0020377
:1031280093707047A0190020B002002008B5064926
:10313800064821F00701C1F1005202F5E0220AF029
:103148001AFD002008BD00BFF3690020585B00206D
:103158001022044B0020C3F840244FF05023C3F83A
:10316800140670470030005030B50024094D0A4B52
:1031780085B02846029303940FF013FC02AB28464F
:1031880000934FF4A3620A23044907F06FFE204618
:1031980005B030BD980D002075480100A82B00200F
:1031A8000146014807F0D8BE980D0020037830B5D5
:1031B800012B13D0022B27D07BB90A46184B03F1F9
:1031C800100453F8045BA34242F8045BF9D11B785E
:1031D800137043884B731B0A8B7330BD0A46104B20
:1031E80003F1100453F8045BA34242F8045BF9D1DD
:1031F8001B7813704368C3F307224B731B0CCB7304
:103208001B0A8A730B74E8E700F1100350F8042BCB
:10321800984241F8042BF9D103780B70DDE700BF21
:103228007E480100012838B505460CBF0648074806
:103238000DF099FD044620B101210C300DF0F5FD8B
:103248002576204638BD00BF74080020F00700200E
:103258000246002070B50B460A49D1E8EF4FC1E895
:10326800E50F002DF9D124B9BDE870400120FFF722
:10327800D9BF01212082217604F10C000DF0D5FD83
:10328800204670BD3801002070B504460F2C0D464D
:103298001046194605D80D2C0DD9BDE87040FFF72A
:1032A800D7BF132C07D10C480DF05DFD044638B983
:1032B8000024204670BD02460B4645B10748F3E797
:1032C80001210C300DF0B1FD01232376F1E7012037
:1032D800BDE87040FFF7A6BFF808002048080020A6
:1032E80038B5C368B3F801401B786BB90F21204685
:1032F80001F092FE054640B9084B1A8822B96FEAD8
:1033080004506FEA1050188038BD012101F0C6FD45
:103318002846BDE838400CF06EB900BF461F0020B3
:1033280010B5084C0146052294F86F0001F084FF9F
:1033380038B994F86F000422BDE81040024901F042
:103348007BBF10BD000000205B48010010B50121C3
:1033580004460C300DF0A7FD2146BDE810400723B8
:10336800014A00780BF05EBD403F0100F8B53F48C8
:103378000DF016FD0446002876D0037E012B44D0BC
:10338800032B22D1038A032B0CD84FF40073384A3D
:10339800384939480AF054FD404080F311884FF00D
:1033A800030002DF042104F10C000DF07CFD4788C6
:1033B8000688204603F0C2FE304DC6F30B0325F8FD
:1033C8001030238A2046BB4202D003F05DFF11E093
:1033D80003F0B4FE0F2135F8100001F01DFE05467C
:1033E80008B92046F1E72146320B0CF0A3F828462D
:1033F8000CF001F9224BD3F83C31002B34D0BDE856
:10340800F840204920480FF0BBBA038A012B0CD89A
:1034180040F65D23164A174917480AF011FD404047
:1034280080F311884FF0030002DF022104F10C0041
:103438000DF039FD054600780BF069FC83070CD4C4
:1034480040F661230A4A11490B480AF0F9FC40404A
:1034580080F311884FF0030002DF042321460C4A51
:1034680028780BF0DFFCBCE7F8BD00BF3C0100206A
:1034780097480100CB480100E4480100481F00209C
:1034880000000020FC020020B80E002001490100C5
:10349800203F0100F8B50746907A0E46144603F01F
:1034A80045FE284B83424BD1204603F047FE0C23B0
:1034B800254D03FB00504388BB4241D1234FD7F829
:1034C800380120B103F0E0FE0023C7F83831204668
:1034D80003F034FE0C2707FB005043689BB196B9F4
:1034E800204603F02BFE012107FB00504268D2E979
:1034F8000003127A03F01F07B9405B09D2B100EB51
:1035080083000BF03AFC204603F018FE0C2707FB5B
:1035180000508368A3B1204603F010FE78432E5470
:10352800204603F00BFE07FB0055A868BDE8F840ED
:1035380007F01ABBC94300EB83000BF08AFCE2E7F3
:10354800F8BD00BFCC080020A4190020000000200E
:1035580038B5042104460C300DF0A5FC45780178F7
:1035680022464088FFF796FF25B1BDE8384002485B
:1035780007F0FABA38BD00BF2001002038B5032192
:1035880004460C300DF08FFCE36805782246197864
:10359800B0F80100FFF77EFF25B1BDE838400248CA
:1035A80007F0E2BA38BD00BF2001002010B5C1E91C
:1035B80000239DF808300C460B7203F0BFFD0C2267
:1035C800024B02FB00335C6010BD00BFA419002051
:1035D8002DE9F0474FF0FF324FF0FF33064617480A
:1035E8000F460DF0C0FB4FF00008044600F10C0A2E
:1035F800012150460DF019FC204684F8188003F08C
:103608009DFD4FF00C090E4D09FB005046802046E9
:1036180003F094FD09FB0050C0F80880204603F031
:103628008DFD09FB005503215046C5F804800DF0B7
:1036380000FC068087702046BDE8F087CC08002093
:10364800A41900202DE9F041074615460C4686B01E
:1036580021B9FFF7BDFF044600284DD00122002103
:1036680068460FF0DDF8204603F068FD0C23DFF80C
:10367800948003FB0080C0F808D020460DF0A9FB19
:10368800014621480DF0A3FB4FF4A0220023684611
:1036980007F090FA064688B14FF4A9731B4A1C49F3
:1036A8001C480AF0CDFB324639461B480AF0C8FBD5
:1036B800404080F311884FF0030002DF204603F0FA
:1036C8003DFD0C23584318F800606EB1204603F006
:1036D800DBFD092E13D00D2E0CBF6FF00B006FF021
:1036E800040006B0BDE8F08115B12C600020F8E7B1
:1036F800204603F0C9FDF9E76FF06800F1E76FF0C5
:103708006E00EEE7A419002044010020974801004C
:103718002F490100E448010038490100F7B5144B6E
:10372800054693F99B300C46002B1DDA14B9204648
:1037380003B0F0BD082C4FF0000142F2180001AAB6
:10374800264628BF0826FFF77DFF0028F0D1019FF5
:103758003246F968284601310FF0EAFD384603F091
:1037680093FD3544A41BE1E76FF08500E0E700BF57
:10377800000000202DE9F04100266D4BB0F80180D3
:10378800198848F470420478914208BF1E800546A3
:1037980008BF012686B0BCB13C2C35D100F034FFFF
:1037A8006FF0800110300BF054FB0020FFF7B8FDDC
:1037B800054648B34472002101F070FB284606B064
:1037C800BDE8F0410BF017BFC378071D012B08BFF8
:1037D800584B384608BF93F86F400BF094FA3946B7
:1037E800A8B104A80BF084FA05F111010DF1090044
:1037F8000BF0EEFA01238DF80830EB78012B12D08C
:10380800132140460BF0F2FB06B0BDE8F0812046DC
:103818000BF0F7FC014604A80BF0DFFA394602A8C2
:103828000BF0DBFAE9E704A8FFF77AFDEB7804462A
:10383800012B0AD100F0E8FE07466FF08001103036
:103848000BF007FB38460BF041FE002CD8D0204681
:103858000022B5F8013004A920F8883B0BF0BDFA26
:10386800B5F81730A4F89E30B5F81930A4F8A4308C
:10387800B5F81B30A4F8A630EB7862722E4A012BFB
:10388800C4E92F22E37015D102A904F18F000BF0CF
:10389800A4FA00F0B9FE217A264AC1EBC10111440D
:1038A80004F196000BF099FAD2F8E430590601D5E4
:1038B80001F040F80721204601F0F0FA1EB101217D
:1038C800204601F0EBFA20460BF0CBFEA37A072B3B
:1038D8002AD1231DD3E8AF3F13F4005F154E18D14A
:1038E800E3781BB196F8D8301A0712D5022142F2B4
:1038F8001600FFF76DFE054658B102210C300DF099
:1039080098FA238800220380294642F21600FFF71E
:1039180099FE96F8D930DB0706D500210223204608
:103928001A4600910BF09BFB20460BF064FE6BE7F8
:10393800461F0020000000201B00480100B5C16898
:1039480089B00B7801A88DF80030B1F80130043146
:10395800ADF8013011F8013C8DF80330B1F80730AB
:10396800ADF81730B1F80930ADF81930B1F80B30AF
:10397800ADF81B304B7B8DF81D300BF02EFA074944
:103988000DF10B000BF024FA0DF111000BF020FAE9
:103998006846FFF7EFFE09B05DF804FB6F480100C9
:1039A800024BD3F85C315B69184700BF0000002068
:1039B80038B505460C4619B9FFF70AFE044698B112
:1039C80040F635439D4209D12046FFF7E9FF0546F9
:1039D80040B1204603F058FC284638BD214604482B
:1039E8000DF0F5F90025F7E76FF06805F4E700BF7B
:1039F80044010020F8B5044603F0A0FB1D4B33F842
:103A08001050A07A03F092FB21460EF0FBFE1A4BF1
:103A180093F88A309B062CD50F21284601F0FCFA32
:103A280038B3837A073B012B03D9BDE8F8400BF084
:103A3800E2BD0BF0E0FD052140F63540FFF7C8FD7B
:103A48000446B0B100F10C07012138460DF0F1F938
:103A580001260421067038460DF0EBF90023058095
:103A68008670C3702146BDE8F84040F63540FFF740
:103A78009FBFF8BD481F0020000000202DE9F04737
:103A88003C4FDFF8F48007F11409FB6848466FF3F0
:103A98009433FB6001F0B8F9451C4FF0FF324FF04A
:103AA800FF332946334808F00BF860B140F6DE23AF
:103AB8004246324932480AF0C3F9404080F311883F
:103AC8004FF0030002DF2B4E15B907F0E9FCDCE7E5
:103AD800F368C3F38633042B42D1337B002B42D1E6
:103AE8000022002327480DF043F9044660B94FF43B
:103AF80027634246244922480AF0A2F9404080F34D
:103B080011884FF0030002DFDFF880A04FF0FF328A
:103B18004FF0FF331E4807F04DF8DAF8380120B1AE
:103B280003F0B2FB0023CAF8383120460DF051F9F2
:103B3800CAF838012046FFF733FF88B1144807F068
:103B480013F8204603F0FAFA0C22124B1F2102FB4D
:103B5800003022464088FFF79DFC204603F094FB86
:103B68001436013DB0E7012BFAD13069383801F03D
:103B78002DFCF5E7C0020020974801002F490100FD
:103B8800E448010044010020814A010000000020AF
:103B980020010020A41900202DE9F041044600F17D
:103BA8000C0630460DF08FF9B4F810800546B8F1D0
:103BB800010F0CD840F685631B4A1C491C480AF0C3
:103BC8003FF9404080F311884FF0030002DF304690
:103BD80002210DF068F9074600780BF098F8C20743
:103BE80006460CD440F689630F4A124910480AF079
:103BF80027F9404080F311884FF0030002DF0523C6
:103C080021460D4A38780BF00DF9B30707D56369DB
:103C1800A4F8108013FA85F5E560BDE8F081204628
:103C2800BDE8F04103F030BB97480100CB480100E4
:103C3800E448010064490100F83E010038B5037EFC
:103C48000446012B0AD0032B16D121460D480DF04E
:103C580091F80D490D480EF093FE0BE0C3681878F3
:103C68000BF055F8C207054602D52046FFF794FF2A
:103C7800AB07EAD4002038BD03F006FB6FF015004F
:103C8800F9E700BF3C010020FC020020B80E00202C
:103C9800084A0346D2F85C0130B9D96839B1596984
:103CA80029B1C2F85C3170476FF0770070476FF048
:103CB8001500704700000020042101480BF05DB892
:103CC800D4000020F7B5BD4DD5F85C31996811F0E6
:103CD80001011AD140F6034001AAFFF7B3FC0446DC
:103CE800002840F09F800198C3681B785BB905F1F4
:103CF800D403D3E8AF2F02F00902D3E8EF1FC3E8DB
:103D0800E42F002CF9D103F0BFFA002141F203009F
:103D180001AAFFF797FC0446002840F08380019B26
:103D2800A74EDA68D2F80100D2F8051003C6184683
:103D380003F0AAFA214641F2010001AAFFF782FC2A
:103D4800044600286ED10198C3685A7885F8702017
:103D58005A88A5F872201A7985F87120B3F80720D7
:103D6800A5F87420B3F80530A5F8763003F08CFA7E
:103D7800214641F2020001AAFFF764FC044600282C
:103D880050D1019FFA68531C41323446186859686B
:103D9800083303C493422646F7D1384603F074FA31
:103DA80000F056FE044600283CD195F88A309E065D
:103DB80032D5072140F63340FFF70AFC06460028B3
:103DC80000F0F38007210C300DF033F85023037016
:103DD8000623C0F802408471447004712246C370FF
:103DE800314640F63340FFF72DFC0446D0B9012197
:103DF80040F63140FFF7ECFB0646002800F0D5807E
:103E080001210C300DF024F82246314640F63140AD
:103E1800FFF718FC044628B995F87C305C0604D4F2
:103E28006FF01204204603B0F0BD002142F20300F7
:103E380001AAFFF707FC04460028F3D1019B614E55
:103E4800DA68D2F80100D2F8051003C6184603F064
:103E58001BFA214642F2020001AAFFF7F3FB0446CF
:103E68000028DFD1019CE368B3F8012091B249B181
:103E7800D97839B1A5F80421DA78114606F1280075
:103E88000EF0CEFC204603F0FFF995F87C6016F0A2
:103E9800200618D1022140F66D40FFF799FB044631
:103EA800002800F0828002210C300CF0C2FF0123B0
:103EB800214603704670324640F66D40FFF7C2FB5C
:103EC80004460028AED195F89C30180712D5002179
:103ED80042F21C0001AAFFF7B5FB04460028A1D155
:103EE8000198C368D3F80120D3F80530C5E9382311
:103EF80003F0CAF9082142F20100FFF769FB044602
:103F0800002852D008210C300CF093FF95F8D820E7
:103F180012F0020F14BF2F230F23910695F8D92012
:103F280048BF43F0400312F0090F4FF0000218BFDA
:103F380043F400630370C3F3072321464370827080
:103F4800C270027142718271C27142F20100FFF7C0
:103F580079FB044600287FF465AF95F87C30B5F806
:103F680004119A0624D4C9B941F2050001AAFFF741
:103F780069FB044600287FF455AFB5F80431019C6D
:103F88004BB9E368B3F80120A5F804219A880E48D4
:103F980011460EF045FC204603F076F9082140F65C
:103FA8000140FFF715FB044680B96FF0680439E754
:103FB8000029F3D16FF0040434E700BF00000020AB
:103FC80078000020D80000200801002008210C30CB
:103FD8000CF02FFF10230370882343700223002264
:103FE800C370202321468270027142718271C371AD
:103FF80040F60140FFF726FB044600287FF412AF85
:10400800014601AA4FF60140FFF71CFB044620BBFE
:10401800019803F039F921464FF6024001AAFFF74B
:1040280011FB0446C8B90198C368B3F80130A5F874
:10403800C13003F029F995F8C1305B070DD5214649
:104048004FF6034001AAFFF7FDFA30B90198C3689B
:104058005B7885F8C03003F017F900F03FFA0446A2
:1040680000287FF4DFAE01F03DFA044600287FF413
:10407800D9AEFFF721FED5E610B5FFF723FE034BB7
:104088001B6813B1BDE81040184710BD1C1A00206A
:1040980070B52E4D0646D5F85C3188B0002B4FD050
:1040A8006FF0020105F1D4000AF0D3FE01210AF0F5
:1040B80064FE10EA010446D1254B1E600A4605F548
:1040C80090700EF0ADFB05F5A2700EF084FB002297
:1040D8000023CDE906236FF008034FF48062CDE991
:1040E8000243CDE900441B4B1B4904941B4806F0CE
:1040F800C9FB1B4919480EF0DCFA1A480EF051FCAE
:104108006FF007034FF4966217491648009406F0BB
:10411800ADFE164913480EF0CCFAD5F85C31DB68D1
:104128009847044648B926B908B0BDE87040FFF77B
:10413800C9BD05F1C40006F093FE204608B070BD65
:104148006FF01204F9E76FF07704F6E7000000203B
:104158001C1A0020853A0000C0300020380E0020CC
:104168007D490100B80E0020C034002083490100B9
:10417800004870473E460100F8B506460024094D40
:10418800EF79E3B29F4202D86FF0010007E02946B9
:1041980030460BF022F80735631C08B12046F8BDFD
:1041A8001C46EEE70000002037B504460D4671B105
:1041B800284612490BF011F848B929461048C4EBB3
:1041C800C40420440BF016F8002003B030BD684644
:1041D8000AF080FD0028F8D16846FFF7CDFF0028D7
:1041E800F5DA074BC4EBC400694618440BF002F833
:1041F800002DE9D001462846E4E700BF62480100E7
:104208000000002038B50622114905460EF034FF9B
:10421800C8B1062142F20500FFF7DAF90446A0B159
:10422800062229460C300CF00AFE0022214642F2F2
:104238000500FFF707FA38B9054829460AF0D5FFFF
:10424800012300F8013C002038BD6FF06800FBE74F
:104258006900002070B50D46044698B11D490AF062
:10426800BCFF78B92378012B02D06FF0150070BD20
:10427800A37903F0C003C02BF7D12046FFF77CFFDA
:10428800002821DA002DF0D1134DEB79012B1ED037
:1042980005F1D403D3E8AF3FDB0707D4002CE4D003
:1042A80020460C490AF099FF0028DED1EE79214614
:1042B800731C3046EB71FFF777FF08B93046D6E735
:1042C800EB79013BEB71D2E76FF07700CFE76FF046
:1042D8000B00CCE76248010000000020F7B5044657
:1042E800C8B1002141F2090001AAFFF7ABF906465F
:1042F80088B9019F0622FD680D49013528460EF050
:10430800BBFE28B1062228460A490EF0B5FE28B998
:10431800384602F0B9FF002003B0F0BD2946601C02
:104328000AF063FF3846267002F0AEFF0120F3E77B
:104338006F4801006948010007B56846FFF7CEFFDE
:10434800044BD87118B169460020FFF72DFF03B060
:104358005DF804FB00000020F7B5184B054693F8FC
:10436800C2300E46DB0703D40024204603B0F0BD5C
:1043780000214FF6094001AAFFF764F90346002817
:10438800F2D101981627C26854780232B44228BF85
:1043980034469C4202DC02F077FFE6E7114607FB51
:1043A800035602F1140C51F804EB614546F804EB8E
:1043B800F9D10988013331801632EAE7000000207C
:1043C80070B5154D88B0EC792CB9012102A8FFF71A
:1043D800C3FFE871C0B90021084608B0BDE87040C5
:1043E800FFF738BF02AB06FB02310DF101000AF0FE
:1043F800FCFE0123694610468DF80030FFF7D4FE15
:10440800013410B108B070BD1626EB79E2B29342C0
:10441800E8D80020F6E700BF000000202DE9F041B1
:1044280090460E461D460246002852D0002B50D01A
:104438003103047807D573074BD40AF0EFFE88BB25
:1044480001232B702DE0F7072ED5234FB8F1000F6D
:1044580013D0B0060AD4C4EBC403FB5C012B11D003
:104468002B70B2061DD543F00203EAE797F8D8305F
:104478005906F0D46FF0850014E0C4EBC403FB5C6C
:10448800012BDED1072101FB0471104601310AF02E
:10449800BDFE38B9C4EBC4043B5D2B70B8F1000F06
:1044A800DFD10020BDE8F08173070ED50A4EC4EBBA
:1044B800C407F35D012BC4D1072111FB043131443A
:1044C8000AF0A4FEF35D2B70ECE70AF0A7FE0123C7
:1044D800F9E76FF01500E5E70000002010B50A4C79
:1044E800E3790BB1002010BDFFF726FF0028FAD1B1
:1044F800E379002BF6D1FFF763FF0028F3D1601CA6
:10450800BDE81040FFF77EBE00000020F8B5456802
:104518000646690535D4046914B115F0010330D095
:10452800194F3078FB7983422BD9C0EBC0000722A2
:10453800164938440EF0A0FDA8B115F0010306D1C4
:1045480097F87020082A02D8B2689F2A19D915F05E
:10455800300F09D0ACB1EA060AD405F46035B5F5D8
:10456800603018BF0120F8BDEB0601D4002CF4D14F
:10457800D6E902239A4204D81F2A02D9B3F5804FFC
:10458800EBD90020EFE700BF0000002062480100DF
:10459800072208B5034909300EF06EFD003818BF30
:1045A800012008BD62480100F8B5154B067804469D
:1045B8000D4683F86F60FFF7EBFF70B9304611497D
:1045C80000F004FE044610B96FF00B00F8BD04219A
:1045D80000F064FC00202C60F8E704F10907394674
:1045E80030460BF067F840B92078394600F0EEFD08
:1045F80004460028E8D00521EAE76FF01500E5E752
:10460800000000205B4801000048704718000020A7
:104618002DE9F04F9A460023D1F810908DB0B9EBF0
:1046280003050646894818BF0125059207930AF035
:104638001FFE0C46410740F1FD802046FFF766FF4C
:1046480028B96FF0150B58460DB0BDE8F08F20461D
:104658000AF0FBFD80460028F3D006F11007384623
:104668000AF006FE0206C0F3C01300F1E680CDE9A9
:104678000933CDF82B30A3686068ADF82030E368C3
:104688006FF40051ADF822300AF0E3FD8DF82D00EB
:104698006E480AF0F0FD23786D4A337082F86F3067
:1046A80030462A4661680DF12503FFF7B7FE8346B9
:1046B8000028C8D106F10900B9F1000F13D021690B
:1046C8000AF0E4FD20460AF0CCFE63680546D807E8
:1046D80016D49A0503D4169B0BB9022D4CD102238C
:1046E8008DF8243019E05B490AF0D0FD20460AF025
:1046F800B8FE63680546D907EBD58DF824900CE021
:1047080013F0100F0CBF0123042321690DF12600BB
:104718008DF82430D8460AF0B9FD0F2142F2060080
:10472800FEF756FF8346002800F08A800F2208A96A
:104738000C300CF084FB0022594642F20600FEF7CA
:1047480081FF00287FD1B9F1000F1BD06368DB0718
:1047580026D4304601210AF094FE079E834600289D
:1047680060D0002E3FF46FAF3046002100F096FB7A
:1047780030460AF040FF66E70323DDF858808DF8DD
:104788002430CAE7179B524600933046CDE901858D
:10479800169B05990AF0F3FD83460028D6D052E708
:1047A800304607A9FFF700FF83460028D1D010F153
:1047B8000C0F7FF448AFB9F1000F7FF444AF636882
:1047C80098073FF540AF626882F00202C2F3400BDF
:1047D8000BF001020E2138460AF0BEFD6B1E5A424C
:1047E8005A41082138460AF0B7FDA91E4A424A41F3
:1047F800384609210AF0B0FD62680A21384602F0FD
:1048080001020AF0A9FD42460B2138460AF0A4FD30
:1048180062680D213846C2F380020AF09DFD4FF010
:10482800000B10E716B130460AF0E5FEB9F1000FAB
:10483800CED1C8E76FF00A0B05E76FF0770B02E7F8
:104848006FF0680BFFE68346FDE600BFD40000204A
:10485800000000206248010073B51546069A0C4610
:10486800CDE900322B460A4601461148FFF7D0FE33
:1048780021460646002340F201109D4202D13046EF
:1048880002B070BD0A88824204D14A6812B1127817
:10489800D20702D401330831EFE7064906480EF083
:1048A80086F84FF470220023034806F0B3FBE6E7CE
:1048B80018000020DBF400003000002010B5194873
:1048C8000AF004FE6FF4804117480AF0D4FC164839
:1048D8000AF0CEFC03461A06C0F3C01021D51248D0
:1048E8000AF0C6FC430513D50E48FFF751FE0346F0
:1048F8000E49087E93B904220D4900F09DFC044638
:1049080030B10021417200F0C9FA20460AF073FE66
:10491800BDE81040002103480AF0B3BD052221314B
:10492800EBE710BD18000020280000200000002040
:104938005B48010073B530480AF09AFC10F4804FC8
:104948002D4C56D020460AF093FC030651D420463D
:104958000AF08EFC46054CD501A9A4F11000FFF71A
:1049680023FE002845D1A4F11000FFF711FE0246EE
:1049780020460AF07DFCC0F3803120460AF078FC1E
:1049880081F0010145054FEA41011B4848BF41F04C
:1049980001010AF06DFC800448BF41F0040117488A
:1049A8000DF10303FFF73AFD054610BB012113483B
:1049B8000AF067FD019E28B9304602B0BDE8704094
:1049C8000AF019BE2946304600F068FA6FF48041B3
:1049D80009480AF050FC054630460AF00CFE6B0404
:1049E80007D5D4E8EF3F43F48043C4E8E23F002A08
:1049F800F7D102B070BD00BF2800002018000020C9
:104A080030B58DB0202104A8FEF788FE0446C8B949
:104A18000EF059F94FF47A75A0FB053205FB012118
:104A2800DB0B43EA4143C90BCDE9023108232022BD
:104A3800009306486B4404A90AF05AF8002808BFF6
:104A48006FF0040420460DB030BD00BF580F0020A1
:104A580007B508216846FEF761FE38B9082269469D
:104A680005480AF025F820B1FFF7CAFF03B05DF842
:104A780004FB6FF00400F9E7580F002038B50D4625
:104A8800044698B191B10B4A0AF04BF8431C07D180
:104A9800FFF7B6FF48B929462046064A0AF041F80A
:104AA80001280CBF00206FF0040038BD6FF015001E
:104AB800FBE700BF580F002070B504460A4B1D687D
:104AC80025B90A4D0A4EB54207D370BD2B6813B1FC
:104AD8002046617A98476D69F2E72B6813B1204642
:104AE800617A98471835EEE7501A00209C37010084
:104AF8009C3701002DE9F04104464FF00008144F9F
:104B08004FF02002EFF3118382F31288BFF36F8F07
:104B1800216A29B983F31188BFF36F8FBDE8F0814B
:104B2800606A0A68814208BF6262226283F3118860
:104B3800BFF36F8FD1E901563846C1E90188C1F842
:104B48000C800DF054FE002231462046A847D7E7D6
:104B5800D8070020002270B50446D1E90156CA6082
:104B6800C1E9012205480DF042FE314620462B4698
:104B7800BDE870406FF06D02184700BFD8070020ED
:104B88002DE9F84FDFF878811F46B8F8043104465C
:104B9800002B08F584700D4608BF00201646002239
:104BA800002306F007F8002840F0A780002E7AD0EE
:104BB80006F10C0A5046B8F804B10CF088F95845CB
:104BC8006BD9B8F804B155F80C1F5A4650460CF08A
:104BD80036F9594628460CF05EF9A37AB569072BD1
:104BE80040F088804FF02003EFF3118283F312889E
:104BF800BFF36F8F002D61D000232B60A369002BBA
:104C080059D1C4E9055582F31188BFF36F8F042188
:104C180006F10C000CF02EF9238807F0FD0743EA93
:104C280007370780338A043B4380022330463376B4
:104C3800FEF7B6FE074668B34FF02003EFF3118185
:104C480083F31288BFF36F8F002D4DD00022636964
:104C58005BB19D4245D12B68002A3CD1A2696361B2
:104C6800954200D1A36100232B6081F31188BFF323
:104C78006F8F6FF00407B8F804312248002B08BF83
:104C8800002005F071FF2DB1002329462046B361AD
:104C9800FFF760FF3846BDE8F88F50460CF017F96B
:104CA8001FFA80FB8FE70022002304F138000CF084
:104CB8005FF8064691E71D60A561A4E7A36933B1D3
:104CC80003F10C09DB680133C9F800309BE7E3699D
:104CD80004F11C09F7E71360A3699D4208BFA261AC
:104CE800C1E71A461B68B3E7D9F80030013BC9F899
:104CF8000030BAE76FF07F07BDE76FF06807C9E7D4
:104D080000000020080100200448B0F8043100F534
:104D18008470002B08BF0020704700BF00000020EF
:104D280038B5002204468A4202D10024204638BD04
:104D3800012004F1C403D3E8EF5F002D04D1C3E8D8
:104D4800EC0FBCF1000FF6D102D0C8340244EAE7F8
:104D5800002CEAD0C422002120460EF0F6FA04F115
:104D6800580004490DF023FE034904F128000DF012
:104D7800DAFDDBE7ED520000DFF40000F8B51F466E
:104D8800CB7A0646072B0D46144631D9837A072B72
:104D98001CD15AB30EF0EAFA184B1A58184B9A421B
:104DA800184807BF002200234FF0FF324FF0FF33AF
:104DB80005F0A6FEF8B1B37A0022072B09D0014608
:104DC800C0E90122C2600F480DF011FD6FF07F00AD
:104DD800F8BDC0E90147C2600024A861294606F170
:104DE80038002C770BF0F3FF2046F1E71046F3E785
:104DF8006FF01500ECE76FF06800E9E708000000C5
:104E080038130020D807002070B504461F480EF05C
:104E18000CF92046002201211C4B0EF0E9F81C4B2E
:104E280004F11400D3E8AF2F0AB9012070BDA3F133
:104E3800C40113F8BA3C73B90B1DD3E8EF2F22F065
:104E48004005C3E8E65F002EF7D1530603D50846B0
:104E58000AF04DFBE9E78B7A072BE6D10D4BB3F847
:104E68000421002AE1D0D3F81021896B51B14AB945
:104E7800022103F584730EF0BBF80123022084F8A5
:104E88002030D3E700220421034BF4E70C03002071
:104E98005411002000000020C81000202DE9F04126
:104EA800857A04468D4200F09480817225B9837812
:104EB800082B01D00AF08BFBA37A012B1DD1002708
:104EC800534D05F584764FF02002EFF3118382F3FA
:104ED8001288BFF36F8FE269002A74D0013AE26149
:104EE80083F31188BFF36F8FB5F80431002B14BF1B
:104EF8003046002005F038FEE5E7072B09D0002BE7
:104F080067D1A378042B24D12046BDE8F0410AF0EC
:104F180072BBA378042B5CD004F138000DF05BFC65
:104F280000213C4806F028FE0023C4E91433E37846
:104F3800012B4ED1A37804F15800012B04BF0323A1
:104F480084F8AC304FF42032BDE8F041002306F07D
:104F58002DB8013D052D3CD801A353F825F000BF1D
:104F6800814F0000C14F0000114F0000114F000099
:104F7800C14F0000C14F00002046FFF7BBFDA378DA
:104F8800012B0AD104F1580528460DF01CFD10F03C
:104F98000C0F02D028460DF018FD0434D4E8EF3F7A
:104FA80043F04003C4E8E23F002AF7D1BDE8F041EE
:104FB8000021184806F0E0BD637A002BA4D02046F3
:104FC800FFF77AFDA0E7616929B983F31188BFF378
:104FD8006F8FBDE8F081A0690A68814208BFA261AD
:104FE800626183F31188BFF36F8F4FF02002EFF3F4
:104FF800118382F31288BFF36F8FCA68E261CF60B2
:1050080083F31188BFF36F8F2046FFF7A3FD6BE78B
:10501800000000200C030020024610B507480C468B
:1050280001210AF0FCFA034610B90023184610BD06
:1050380082781442FAD10AF0DEFAF6E790100020DE
:10504800034BC01A034BC0105843C0B2704700BF8F
:1050580090100020295C8FC238B50D4606490028FB
:1050680008BF08460BF07FFE044618B1691D0C30D6
:105078000BF0DBFE204638BD1C080020F8B50446BE
:10508800031DD3E8AF2F920515D5B0F89E20B0F8D0
:10509800A01091420FD8B0F8A21091420BD3D0E9DA
:1050A8002912914207D1D3E8EF1F21F40071C3E818
:1050B800E21F002AF7D1104B1D6825B90F4D104F7C
:1050C800BD420CD3F8BDEE683EB12046B4F8A63018
:1050D800B4F8A420B4F89E10B0476D69EDE7EE6807
:1050E8003EB12046B4F8A630B4F8A420B4F89E1017
:1050F800B0471835E4E700BF501A00209C3701007C
:105108009C370100F8B504460C4B00F1BC061D683D
:1051180035B90B4D0B4E04F1BC07B54207D3F8BDAA
:105128002B6913B13146204698476D69F0E72B6922
:1051380013B13946204698471835EEE7501A002033
:105148009C3701009C3701002DE9F04107460846CD
:105158000C4609F0AFFF054618B900252846BDE8FA
:10516800F081134B1E6846B9124EDFF84C80464555
:10517800F4D2B36883B91836F9E7B3680BB976691E
:10518800F1E72146384698470028E6D0204609F03E
:1051980091FF0028F3D1E0E72146384698470028D8
:1051A800DBD0204609F086FF0028E4D1D5E700BF10
:1051B800501A00209C3701009C370100024B1A68E6
:1051C80018604261704700BF501A002038B5054684
:1051D8000C460A480121FFF7A3FD70B10572236848
:1051E800C0F88830A388A0F88C30A37980F88E3076
:1051F80001238370024BC0F8A03038BD9010002006
:105208001800280070B505460A480E460AF0DFF96E
:10521800044620B18378012B04D00AF0ECF900246D
:10522800204670BD324629460AF024FA0028F7D1F4
:105238002046F2E790100020F8B505460E480E46C5
:1052480017460AF0C4F9044620B18378012B03D02D
:105258000AF0D1F900240DE036B1324629460AF0A9
:1052680009FA08B92046F3E7A37ABB42FAD1237AB0
:10527800AB42F7D12046F8BD9010002038B504465F
:1052880008460D4609F016FF38B3154B93F8D83089
:10529800990707D4E37873B129462046BDE838401A
:1052A80000F096B994F8AD309A07F3D5231DD3E8EA
:1052B800AF3F5B05EED4294620460AF015FA58B9E7
:1052C8002B88A4F8A0306B88A4F8A230AB88A4F887
:1052D800A830EB88A4F8AA3038BD6FF01500FBE7BA
:1052E80000000020F7B510F84E3C0446A0F158061F
:1052F800FBB930460AF04DFA2D4B1D684DB92D4DBE
:105308002D4FBD420DD3304603B0BDE8F0400AF042
:1053180072B96B681BB1304614F84F1C98476D6919
:10532800ECE76B681BB1304614F84F1C98471835EA
:10533800E7E710F8563C012B24D1A0F15405D5E835
:10534800EF3F23F40072C5E8E12F0029F7D19B0550
:105358001AD5A36C69460093236D30460193FFF775
:105368008DFF38B9D5E8EF3F23F48073C5E8E23FF5
:10537800002AF7D1D5E8EF3F43F08003C5E8E23FC4
:10538800002AF7D103B0F0BD6B460C4A106851688B
:1053980003C369463046FFF771FF0028EAD1D5E814
:1053A800EF3F43F48073C5E8E23F002AE2D0F6E716
:1053B800501A00209C3701009C370100F439010085
:1053C80001460148FFF748BEA00800202DE9F04734
:1053D800837A054673B9031DD3E8EF2F22F0400105
:1053E800C3E8E41F002CF7D1530603D5BDE8F04706
:1053F8000AF07DB805F138000DF00EFA044660B9E0
:1054080040F29733334A3449344808F019FD404094
:1054180080F311884FF0030002DF20460BF0D9FC1F
:10542800DFF8BC90028AB9F8043104469A42027F38
:1054380007D832B9022321462846FFF7A1FB0646C2
:1054480032E017464FF0000A228AB9F804319A422E
:1054580004D80123002223770323ECE74FF0FF331E
:105468004FF0FF320020FFF7ABFFAB7A8046072BE7
:1054780006D001F009FF2046BDE8F04701F004BF5F
:10548800C0F818A080F81CA0637F02464377214625
:105498003B462846FFF774FB0646B8B107F00107FC
:1054A8004046277701F0F0FE204601F0EDFE053674
:1054B8000ED10023A6692046A36101F0E5FE3EB1A6
:1054C80031462846BDE8F047FFF744BB0127BBE754
:1054D800BDE8F087B1490100814A0100E4480100B4
:1054E8000000002010B50C480DF075F90B490A486A
:1054F8000DF07DF90A4908480DF079F9094906487F
:105508000DF075F900F02AFE0BF025FC044608B9E9
:105518000AF0C8F9204610BDD8070020201A00203C
:10552800301A0020401A0020044B186818B9044AA1
:105538005A600B6070476FF00B007047541A0020D8
:10554800A83F0100F7B5044600261F4D1F4FBD4276
:1055580001D303B0F0BD20466B6801A99847002825
:105568002CDB019B2A889A829A84A86803F110028E
:10557800D2E8EF1FC2E8EC6FBCF1000FF8D19E60D3
:10558800616D03F10802D9B9C4E914221C60D8601E
:10559800019843681B6803B19847019B1033D3E80F
:1055A800EF1F41F00101C3E8E21F002AF7D101987B
:1055B8004368DB6913B100F1100198470C35C6E761
:1055C8000A606265E2E700BF783701009C37010096
:1055D80073B5174B0E46197805460131C9B2012932
:1055E80038BF01210822122019700AF0A6F80446D3
:1055F800D0B108210C300BF01CFC33882246038004
:10560800738805214380B3888380F388C38000238F
:10561800284600930AF0D8F8054610B1204601F054
:1056280033FE284602B070BD6FF00B05F9E700BFE6
:105638008E1F002023281FD81A2804D8431E182B91
:105648000ED906207047A0F11B03082B1ED8DFE8EF
:1056580003F0051D1B231D19251D05000320704798
:1056680001230F4A83401A40C2B90E4A1A40002A41
:1056780014BF01200620704700F07F03522B05D18C
:1056880000207047012070470520704710F0400F38
:105698000CBF062000207047042070470220704786
:1056A800AAAA8A0254554501011F01480CF0D5BF2A
:1056B8000C07002010B5044678B10B4B98420CD368
:1056C8003C33984209D2002114220DF03EFE2146B7
:1056D800BDE8104005480DF08AB82046BDE81040E6
:1056E800142200210DF031BE841A0020C0070020CA
:1056F8002DE9FF414FF000084FF4205305460E46B0
:10570800006802A9144617688DF80880ADF80A30B9
:1057180009F092FAA0B142F60103286803A98DF8AE
:105728000C80ADF80E3009F087FA48B123691BB137
:105738005A88B24200D25E80012004B0BDE8F081F0
:105748006168286809F078FA10B100232361F3E74B
:10575800E368A0681A786AB1B7F81AC0798D038A25
:105768008C4594BFC3EB0C03C3EB0103934201DAEE
:105778000020E2E704210C300BF05BFB206106807F
:10578800236929465E80074B01940093384600231D
:10579800A2680AF057FA0028EADB2069003818BF27
:1057A8000120CAE775FB00002DE9F8430F46438D39
:1057B800418B01328B4228BF0B469A42064625D8B8
:1057C8003846FFF737FF022824D004283FD04FF08F
:1057D800FF384FF0FF39002142464B46084609F092
:1057E800F0FF044690B10DF0C1FD1B4B1A581B4B3E
:1057F8009A421B4807BF0022002342464B4605F049
:105808007FF90546D0B9204601F03EFD0024204628
:10581800BDE8F8830F2F1AD0212F18D0B36D002BB5
:10582800F4D1706D0BF0D5FA04460BF097FA092104
:1058380004F10C0006F158050BF0F7FA2E6001216F
:10584800A56104F10C000BF0F4FA0770DFE74FF4E0
:1058580070284FF00009BEE7080000003813002048
:10586800C00700202DE9F7431768054688460068F9
:10587800516814467E6809F0DFF98146002842D154
:105888003046952229460BF08CF80646207540B123
:10589800E3681B780BB184F81490002003B0BDE8CE
:1058A800F083A0680BF099FA02210C300BF0C1FAD2
:1058B800164B2061A0F800800093019433462946D6
:1058C8003846A2680AF0BEF9002807DA10F1FF0F7F
:1058D80032BF0E204042C0B22075DEE72369002B9C
:1058E800DBD0A06809F0E9FF7B8D7A8B9A4294BFE0
:1058F800C0EB0200C0EB0300E3681B78984294BF3A
:1059080000200120CAE70120C8E700BFD3F8000043
:10591800F7B5002304460E4600226946284804F0DD
:1059280045FF0546D0B90DF021FD264B009F1A58BA
:10593800254B29461A60381D28220DF006FD3C60CB
:10594800009C0022C4E90155C4E9095500231F48F9
:1059580001A9019504F02AFF054620B16FF00B0557
:10596800284603B0F0BD019B0146A82218460DF059
:10597800ECFC174A82603C300CF02DFF019B34335D
:10598800D3E8EF2FC3E8E15F0029F9D1019B1C6040
:10599800636A019F1BB904F10C000CF01CFF626ADA
:1059A80007F1A003C7F8A020A26A636202B9A36244
:1059B8001722019B5A855A8304333360D0E700BF0E
:1059C800F006002008000000C01A00200C07002084
:1059D8001C0300202DE9F347D1F8188006460C4631
:1059E800D8F80090CB6800F13402D2E8AF2F520704
:1059F8003BD51B78D22B0FD1036818680BF0A8F998
:105A0800054648B1A069FFF755FE204601F03CFC69
:105A1800284602B0BDE8F08704F10C000BF053FAF9
:105A2800B4F810A0C8F80060336807461D68E3683A
:105A380004211878FFF7FEFD052898BF0C4B224675
:105A480094BF53F820300B4B2846CDF8008009F05E
:105A5800BBFE05460028DBD06369A4F810A013FA42
:105A680087F7E760C8F80090D2E76FF01505CFE731
:105A7800D03F01000301010010B5044600F13003D6
:105A8800D3E8EF1F41F00401C3E8E21F002AF7D171
:105A9800201F09F059FF04F16C0004490CF087FF3E
:105AA8002068BDE8104001F0ABBA00BF7163000088
:105AB8002DE9F84F0B8A05460C46002B6AD00121C8
:105AC80004F10C000BF0EFF955F8043C0646002BE6
