:020000040000FA
:1000000070490020C92B000097FD00009D2B0000C7
:100010009D2B00009D2B00009D2B00009D2B0000C0
:10002000000000000000000000000000F5270000B4
:100030009D2B0000000000008D2700009D2B00007C
:10004000812800008128000081280000812800000C
:1000500081280000812800008128000081280000FC
:1000600081280000812800008128000081280000EC
:1000700081280000812800008128000081280000DC
:1000800081280000812800008128000081280000CC
:1000900081280000812800008128000081280000BC
:1000A00081280000812800008128000081280000AC
:1000B000812800008128000081280000812800009C
:1000C000812800008128000081280000812800008C
:1000D000812800008128000081280000812800007C
:1000E000812800008128000081280000812800006C
:1000F000812800008128000081280000812800005C
:10010000812800008128000081280000812800004B
:10011000812800008128000081280000812800003B
:10012000812800008128000081280000812800002B
:10013000812800008128000081280000812800001B
:10014000812800008128000081280000812800000B
:1001500081280000FFFFFFFF4FF0FF0C1CEAD05288
:100160001EBF1CEAD15392EA0C0F93EA0C0F6FD01A
:100170001A4480EA010C400218BF5FEA41211ED0F8
:100180004FF0006343EA501043EA5111A0FB0131E4
:100190000CF00040B1F5000F3EBF490041EAD371B9
:1001A0005B0040EA010062F17F02FD2A1DD8B3F135
:1001B000004F40EBC25008BF20F00100704790F0A4
:1001C000000F0CF0004C08BF49024CEA502040EAF6
:1001D00051207F3AC2BFD2F1FF0340EAC2507047BC
:1001E00040F400004FF00003013A5DDC12F1190FFA
:1001F000DCBF00F000407047C2F10002410021FA6C
:1002000002F1C2F1200200FA02FC5FEA310040F183
:10021000000053EA4C0308BF20EADC70704792F0FC
:10022000000F00F0004C02BF400010F4000F013A34
:10023000F9D040EA0C0093F0000F01F0004C02BF2F
:10024000490011F4000F013BF9D041EA0C018FE79E
:100250000CEAD15392EA0C0F18BF93EA0C0F0AD0A4
:1002600030F0004C18BF31F0004CD8D180EA0100CA
:1002700000F00040704790F0000F17BF90F0004F63
:10028000084691F0000F91F0004F14D092EA0C0F45
:1002900001D142020FD193EA0C0F03D14B0218BFD8
:1002A000084608D180EA010000F0004040F0FE401E
:1002B00040F40000704740F0FE4040F440007047BA
:1002C00081F0004102E000BF83F0004330B54FEA07
:1002D00041044FEA430594EA050F08BF90EA020F74
:1002E0001FBF54EA000C55EA020C7FEA645C7FEA07
:1002F000655C00F0E2804FEA5454D4EB5555B8BF2A
:100300006D420CDD2C4480EA020281EA030382EA9A
:10031000000083EA010180EA020281EA0303362D2C
:1003200088BF30BD11F0004F4FEA01314FF4801CFF
:100330004CEA113102D0404261EB410113F0004F11
:100340004FEA03334CEA133302D0524263EB4303C8
:1003500094EA050F00F0A780A4F10104D5F1200E66
:100360000DDB02FA0EFC22FA05F2801841F10001C1
:1003700003FA0EF2801843FA05F359410EE0A5F195
:1003800020050EF1200E012A03FA0EFC28BF4CF0C6
:10039000020C43FA05F3C01851EBE37101F000457C
:1003A00007D54FF0000EDCF1000C7EEB00006EEB89
:1003B0000101B1F5801F1BD3B1F5001F0CD3490813
:1003C0005FEA30004FEA3C0C04F101044FEA44526A
:1003D00012F5800F80F09A80BCF1004F08BF5FEAF1
:1003E000500C50F1000041EB045141EA050130BDD1
:1003F0005FEA4C0C404141EB0101013C28BFB1F5E3
:10040000801FE9D291F0000F04BF01460020B1FA2D
:1004100081F308BF2033A3F10B03B3F120020CDA00
:100420000C3208DD02F1140CC2F10C0201FA0CF0DE
:1004300021FA02F10CE002F11402D8BFC2F1200C43
:1004400001FA02F120FA0CFCDCBF41EA0C019040F9
:10045000E41AA2BF01EB0451294330BD6FEA040442
:100460001F3C1CDA0C340EDC04F11404C4F120022D
:1004700020FA04F001FA02F340EA030021FA04F33F
:1004800045EA030130BDC4F10C04C4F1200220FA96
:1004900002F001FA04F340EA0300294630BD21FAD4
:1004A00004F0294630BD94F0000F83F4801306BF9A
:1004B00081F480110134013D4EE77FEA645C18BF8E
:1004C0007FEA655C29D094EA050F08BF90EA020F25
:1004D00005D054EA000C04BF1946104630BD91EA1D
:1004E000030F1EBF0021002030BD5FEA545C05D120
:1004F0004000494128BF41F0004130BD14F580045F
:100500003CBF01F5801130BD01F0004545F0FE41D2
:1005100041F470014FF0000030BD7FEA645C1ABF07
:10052000194610467FEA655C1CBF0B46024650EA3E
:10053000013406BF52EA033591EA030F41F400216A
:1005400030BD00BF90F0000F04BF0021704730B5F0
:100550004FF4806404F132044FF000054FF00001C5
:1005600050E700BF90F0000F04BF0021704730B586
:100570004FF4806404F1320410F0004548BF40425B
:100580004FF000013EE700BF42004FEAE2014FEAB0
:1005900031014FEA02701FBF12F07F4393F07F4F8B
:1005A00081F06051704732F07F4208BF704793F08E
:1005B0007F4F04BF41F40021704730B54FF46074A1
:1005C00001F0004521F000411CE700BF50EA0102A4
:1005D00008BF704730B54FF000050AE050EA01024D
:1005E00008BF704730B511F0004502D5404261EBBD
:1005F00041014FF4806404F132045FEA915C3FF4FE
:10060000D8AE4FF003025FEADC0C18BF03325FEA9A
:10061000DC0C18BF033202EBDC02C2F1200300FA4B
:1006200003FC20FA02F001FA03FE40EA0E0021FA70
:1006300002F11444BDE600BF70B54FF0FF0C4CF45E
:10064000E06C1CEA11541DBF1CEA135594EA0C0F10
:1006500095EA0C0F00F0DEF82C4481EA030621EA4B
:100660004C5123EA4C5350EA013518BF52EA033586
:1006700041F4801143F4801338D0A0FB02CE4FF038
:100680000005E1FB02E506F00042E0FB03E54FF068
:100690000006E1FB03569CF0000F18BF4EF0010E60
:1006A000A4F1FF04B6F5007F64F5407404D25FEA5C
:1006B0004E0E6D4146EB060642EAC62141EA55510F
:1006C0004FEAC52040EA5E504FEACE2EB4F1FD0C51
:1006D00088BFBCF5E06F1ED8BEF1004F08BF5FEACF
:1006E000500E50F1000041EB045170BD06F0004681
:1006F00046EA010140EA020081EA0301B4EB5C042E
:10070000C2BFD4EB0C0541EA045170BD41F4801125
:100710004FF0000E013C00F3AB8014F1360FDEBF4A
:10072000002001F0004170BDC4F10004203C35DA26
:100730000C341BDC04F11404C4F1200500FA05F3A9
:1007400020FA04F001FA05F240EA020001F000424A
:1007500021F0004110EBD37021FA04F642EB0601C0
:100760005EEA430E08BF20EAD37070BDC4F10C04EA
:10077000C4F1200500FA04F320FA05F001FA04F2AE
:1007800040EA020001F0004110EBD37041F100019A
:100790005EEA430E08BF20EAD37070BDC4F12005A5
:1007A00000FA05F24EEA020E20FA04F301FA05F20D
:1007B00043EA020321FA04F001F0004121FA04F2B5
:1007C00020EA020000EBD3705EEA430E08BF20EA85
:1007D000D37070BD94F0000F0FD101F000464000BF
:1007E00041EB010111F4801F08BF013CF7D041EA41
:1007F000060195F0000F18BF704703F00046520045
:1008000043EB030313F4801F08BF013DF7D043EA15
:100810000603704794EA0C0F0CEA135518BF95EACB
:100820000C0F0CD050EA410618BF52EA4306D1D152
:1008300081EA030101F000414FF0000070BD50EA71
:10084000410606BF1046194652EA430619D094EAFB
:100850000C0F02D150EA013613D195EA0C0F05D1E5
:1008600052EA03361CBF104619460AD181EA030139
:1008700001F0004141F0FE4141F470014FF00000F1
:1008800070BD41F0FE4141F4780170BD70B54FF08C
:10089000FF0C4CF4E06C1CEA11541DBF1CEA13550C
:1008A00094EA0C0F95EA0C0F00F0A7F8A4EB0504EE
:1008B00081EA030E52EA03354FEA013100F08880E5
:1008C0004FEA03334FF0805545EA131343EA1263AE
:1008D0004FEA022245EA111545EA10654FEA002663
:1008E0000EF000419D4208BF964244F1FD0404F51C
:1008F000407402D25B084FEA3202B61A65EB030578
:100900005B084FEA32024FF480104FF4002CB6EB34
:10091000020E75EB030E22BFB61A754640EA0C00B4
:100920005B084FEA3202B6EB020E75EB030E22BFF4
:10093000B61A754640EA5C005B084FEA3202B6EB35
:10094000020E75EB030E22BFB61A754640EA9C00F4
:100950005B084FEA3202B6EB020E75EB030E22BFC4
:10096000B61A754640EADC0055EA060E18D04FEA82
:10097000051545EA16754FEA06164FEAC30343EA22
:1009800052734FEAC2025FEA1C1CC0D111F4801FEF
:100990000BD141EA00014FF000004FF0004CB6E7E8
:1009A00011F4801F04BF01430020B4F1FD0C88BF87
:1009B000BCF5E06F3FF6AFAEB5EB030C04BFB6EB92
:1009C000020C5FEA500C50F1000041EB045170BD85
:1009D0000EF0004E4EEA113114EB5C04C2BFD4EBB2
:1009E0000C0541EA045170BD41F480114FF0000E36
:1009F000013C90E645EA060E8DE60CEA135594EAB2
:100A00000C0F08BF95EA0C0F3FF43BAF94EA0C0FB4
:100A10000AD150EA01347FF434AF95EA0C0F7FF429
:100A200025AF104619462CE795EA0C0F06D152EA7D
:100A300003353FF4FDAE1046194622E750EA410661
:100A400018BF52EA43067FF4C5AE50EA41047FF472
:100A50000DAF52EA43057FF4EBAE12E74FEA4102D5
:100A6000B2F1E04324BFB3F5001CDCF1FE5C0DD90C
:100A700001F0004C4FEAC0024CEA5070B2F1004F56
:100A800040EB830008BF20F00100704711F0804F59
:100A900021D113F13872BCBF01F00040704741F41E
:100AA00080114FEA5252C2F11802C2F1200C10FA22
:100AB0000CF320FA02F018BF40F001004FEAC12306
:100AC0004FEAD32303FA0CFC40EA0C0023FA02F3AA
:100AD0004FEA4303CCE77FEA625307D150EA013380
:100AE0001EBF4FF0FE4040F44000704701F0004050
:100AF00040F0FE4040F40000704700BF80F000402E
:100B000002E000BF81F0004142001FBF5FEA4103E5
:100B100092EA030F7FEA226C7FEA236C6AD04FEAE5
:100B20001262D2EB1363C1BFD2184140484041402A
:100B3000B8BF5B42192B88BF704710F0004F40F4DC
:100B4000000020F07F4018BF404211F0004F41F4F8
:100B5000000121F07F4118BF494292EA030F3FD0C4
:100B6000A2F1010241FA03FC10EB0C00C3F12003D7
:100B700001FA03F100F0004302D5494260EB400066
:100B8000B0F5000F13D3B0F1807F06D340084FEAD1
:100B9000310102F10102FE2A51D2B1F1004F40EBC6
:100BA000C25008BF20F0010040EA0300704749002E
:100BB00040EB0000013A28BFB0F5000FEDD2B0FACB
:100BC00080FCACF1080CB2EB0C0200FA0CF0AABFEE
:100BD00000EBC25052421843BCBFD040184370478C
:100BE00092F0000F81F4000106BF80F40000013292
:100BF000013BB5E74FEA41037FEA226C18BF7FEA69
:100C0000236C21D092EA030F04D092F0000F08BFAA
:100C10000846704790EA010F1CBF0020704712F091
:100C20007F4F04D1400028BF40F00040704712F1D0
:100C300000723CBF00F50000704700F0004343F035
:100C4000FE4040F4000070477FEA226216BF08466B
:100C50007FEA23630146420206BF5FEA412390EA2E
:100C6000010F40F4800070474FF0000304E000BF24
:100C700010F0004348BF40425FEA000C08BF7047D5
:100C800043F0964301464FF000001CE050EA010299
:100C900008BF70474FF000030AE000BF50EA0102AE
:100CA00008BF704711F0004302D5404261EB41019B
:100CB0005FEA010C02BF84460146002043F0B643C0
:100CC00008BFA3F18053A3F50003BCFA8CF2083AE5
:100CD000A3EBC25310DB01FA02FC634400FA02FCEE
:100CE000C2F12002BCF1004F20FA02F243EB0200F5
:100CF00008BF20F00100704702F1200201FA02FC57
:100D0000C2F1200250EA4C0021FA02F243EB020049
:100D100008BF20EADC70704753B94AB9002908BF00
:100D200000281CBF4FF0FF314FF0FF3000F00CB82F
:100D3000ADF1080C6DE904CE00F008F8DDF804E030
:100D4000DDE9022304B07047704700BF2DE9F0478A
:100D500086468C460846089E154674461946002B62
:100D600040F0C1808542B2FA82F245D94AB1C2F15F
:100D7000200300FA02FC954094402EFA03F343EA64
:100D80000C0C4FEA154EA8B2230CBCFBFEF80EFB70
:100D900018CC08FB00F943EA0C43994528D9EB1815
:100DA00008F1FF3704D2994502D9A8F102072B4474
:100DB000A3EB0903A4B2B3FBFEFC0EFB1C330CFB3C
:100DC00000F044EA0344A04214D92C190CF1FF337B
:100DD00004D2A04202D9ACF102032C44241A43EA03
:100DE00007401EB1D440002334607360BDE8F08733
:100DF0004746DDE76346F1E792BB431B01214FEA1B
:100E0000154EAFB2200CB3FBFEFC0EFB1C330CFBEB
:100E100007F840EA0343984561D9EB180CF1FF301D
:100E200004D2984502D9ACF102002B44A3EB08038D
:100E3000A4B2B3FBFEFC0EFB1C330CFB07F744EA29
:100E40000344A7424DD92C190CF1FF3304D2A74219
:100E500002D9ACF102032C44E41B43EA0040C0E792
:100E6000C2F120039540944020FA03F12EFA03F3D7
:100E70004FEA154E9040AFB20343B1FBFEFC0EFBB0
:100E80001C10190C0CFB07F841EA0041884522D9D7
:100E900069180CF1FF3004D2884502D9ACF1020088
:100EA0002944A1EB08019BB2B1FBFEFC0EFB1C1117
:100EB0000CFB07F743EA01439F420ED9EB180CF1F4
:100EC000FF3104D29F4202D9ACF102012B44DB1B5B
:100ED00041EA004193E76046E3E76146F7E7604691
:100EE000A4E76346B8E7834206D916B9002108464D
:100EF0007CE7C6E900E0F9E7B3FA83F78FB98342EC
:100F000001D3724508D8BEEB020460EB0303012055
:100F10009C461EB9002169E73846FAE7C6E9004C4D
:100F2000F8E7C7F1200CBB400EFA07F522FA0CF4E3
:100F30002EFA0CF1BA401C4320FA0CF3B8404FEAE9
:100F4000144901431FFA84FEB3FBF9F809FB18307A
:100F50000B0C08FB0EFA43EA00439A4540D9E3180C
:100F600008F1FF3004D29A4502D9A8F102002344C7
:100F7000A3EB0A0389B2B3FBF9F809FB183308FBAA
:100F80000EFE41EA03418E452CD9611808F1FF336A
:100F900004D28E4502D9A8F10203214443EA00405D
:100FA000A1EB0E01A0FB02984145CE46434602D379
:100FB00006D14D4504D20138B9EB020E68EB0403AB
:100FC000002EA7D0B5EB0E0261EB030101FA0CFC79
:100FD00022FA07F3F9404CEA0303C6E9003199E726
:100FE0004046C5E74346D9E710F8012B11F8013B0D
:100FF000012A28BF9A42F7D0D01A7047034611F849
:10100000012B03F8012B002AF9D17047034613F88E
:10101000012B002AFBD1181A01387047000000008C
:101020004FF066582CA5D5E90045002683B52C4F16
:10103000DFF8B09099F8003043B999F80030002BF0
:10104000F6D141F288300DF00CFCF6E70DF0FCFB18
:10105000DFF89490DFF894A0C9F800000DF0F4FBDD
:10106000234BCAF800001868836822495B689847D8
:10107000214BB3F90000FFF7FBFD4146FFF76CF889
:10108000FFF782FA22462B46FFF7D6FA32463B4656
:10109000FFF7D2FAFFF7E2FC0146FFF735FD174BE9
:1010A000F0211860164B174A00931748174B0CF0A5
:1010B000B3F9154800F026FB15480DF0E7FB0DF0DD
:1010C000C3FBD9F80030CAF8000003F56A43603367
:1010D000181A0DF0C6FBABE7333333333333E33F3A
:1010E000000018405E2100209C150020981500206B
:1010F000740200206002002030210020A015002092
:10110000FD050020CE6C01004906002022060020CB
:10111000E86C010000000000F7B5594DD5F86431C6
:10112000996811F001011AD140F6034001AA02F0BA
:10113000F9F90446002840F09F800198C3681B78A5
:101140005BB905F1D403D3E8AF2F02F00902D3E86D
:10115000EF1FC3E8E42F002CF9D107F015FB0021A5
:1011600041F2030001AA02F0DDF90446002840F034
:101170008380019B434EDA68D2F80100D2F8051053
:1011800003C6184607F000FB214641F2010001AA00
:1011900002F0C8F9044600286ED10198C3685A7855
:1011A00085F870205A88A5F872201A7985F8712080
:1011B000B3F80720A5F87420B3F80530A5F8763009
:1011C00007F0E2FA214641F2020001AA02F0AAF970
:1011D0000446002850D1019FFA68531C413234461E
:1011E00018685968083303C493422646F7D1384635
:1011F00007F0CAFA03F00CFB044600283CD195F82E
:101200008A309B0632D5072140F6334002F050F970
:101210000646002800F0188107210C3012F05BF818
:10122000502303700623C0F8024084714470047197
:101230002246C370314640F6334002F073F904464B
:10124000D0B9012140F6314002F032F906460028BB
:1012500000F0FA8001210C3012F04CF822463146A1
:1012600040F6314002F05EF9044628B995F87C302A
:101270005F0609D46FF01204204603B0F0BD00BF32
:101280000000002078000020002142F2030001AAA3
:1012900002F048F904460028EED1019B9C4EDA6822
:1012A000D2F80100D2F8051003C6184607F06CFA10
:1012B000214642F2020001AA02F034F90446002855
:1012C000DAD1019CE368B3F8012091B249B1D97831
:1012D00039B1A5F80421DA78114606F1280013F097
:1012E000CCFC204607F050FA95F87C6016F02006FA
:1012F00018D1022140F66D4002F0DAF804460028C9
:1013000000F0A28002210C3011F0E5FF01232146FC
:1013100003704670324640F66D4002F003F9044611
:101320000028A9D195F89C301E0712D5002142F261
:101330001C0001AA02F0F6F8044600289CD101988E
:10134000C368D3F80120D3F80530C5E9382307F086
:101350001BFA95F8D8305C060FD5002142F22A001E
:1013600001AA02F0DFF80446002885D10198C3687D
:101370005B7885F8203107F007FA082142F2010076
:1013800002F096F8044600285ED008210C3011F0D7
:10139000A2FF95F8D81040F2022311F0400F08BFC9
:1013A0000323024688074CBF43F02C0043F00C0097
:1013B00095F8D9308F0648BF40F0400013F0090F70
:1013C00095F8A23018BF40F4006003F00603CE0782
:1013D00048BF40F01000062B08BF40F4C070002149
:1013E0000EF066FE2146002242F2010002F09AF859
:1013F000044600287FF440AF95F87C30B5F804111E
:10140000980624D4C9B941F2050001AA02F08AF86D
:10141000044600287FF430AFB5F80431019C4BB985
:10142000E368B3F80120A5F804219A8839481146E9
:1014300013F023FC204607F0A7F9082140F60140ED
:1014400002F036F8044638B96FF0680414E7002952
:10145000F3D16FF004040FE708210C3011F03BFFCB
:1014600095F8D8300246D9074AD44FF000512A489F
:101470000EF01EFE2146002240F6014002F052F816
:10148000044600287FF4F8AE014601AA4FF6014059
:1014900002F048F8044620BB019807F075F9214690
:1014A0004FF6024001AA02F03DF80446C8B901987F
:1014B000C368B3F80130A5F8C13007F065F995F8B5
:1014C000C1305B070DD521464FF6034001AA02F05B
:1014D00029F830B90198C3685B7885F8C03007F007
:1014E00053F902F0D5FE044600287FF4C5AE04F09F
:1014F0003FF8044600287FF4BFAE02F057FBBBE67E
:1015000001A1D1E90001B3E790880002008000202A
:10151000D8000020080100201088000207B5CB8801
:10152000044800934B888A8809880DF0AFF903B00E
:101530005DF804FB906A010008B503480DF0A6F9B8
:101540000022024B1A7008BDD96A01005E210020FA
:1015500010B5044603480BF03FFF2046BDE810409D
:101560000FF058BCF46A010013B5044629B11248C3
:1015700002B0BDE810400DF089B910480DF086F9B1
:1015800001220F4B01A91A700E4B186801902046DA
:101590000FF008FC014610B10B480DF077F90B492C
:1015A0000B4B20460B6005F08DFD014608B1094844
:1015B000DEE702B010BD00BF146B0100316B01000B
:1015C0005E210020705D01003C6B0100A41500202D
:1015D000D91500005D6B010010B5044669B90849D2
:1015E00008480DF053F9204610F0D8FDC11E0648FA
:1015F00089B2BDE810400DF049B904490148F8E747
:10160000836B01008E6B01009F6B0100B36B0100C7
:1016100013B51F4C1F480DF039F9206813F0AFF9CE
:1016200028B91D4802B0BDE810400DF02FB9206860
:1016300083681A491B689847014628B1184802B0C8
:10164000BDE810400DF022B902F0C2FA014608B11F
:101650001448F4E7144803F0E3FD144803F06EFF68
:1016600000F048F8014608B11148E8E711480DF0CC
:101670000DF90123104900930222104B104802F08B
:10168000CBFF014608B10F48D9E70F48CAE700BFB2
:1016900074020020BA6B0100C86B0100886A010067
:1016A000D96B01000B6C01002C02002010020020FD
:1016B0003C6C0100776C0100506101004861010041
:1016C0004C020020896C0100B46C01001FB51A2384
:1016D0000649029309680191BDF818100091044968
:1016E00010F0F3FC05B05DF804FB00BFCC15002042
:1016F0008861010008B502480DF0C8F8002008BD57
:10170000296D010030B50C4B87B004461860FFF717
:101710007DFC054618220021684614F043F8074B6B
:1017200069460020CDE90134ADF80C5005F0C2FB4C
:10173000C0B207B030BD00BFCC15002088610100E9
:10174000014B1B68184700BF80020020014B186046
:10175000704700BF8002002030B585B004460D46BA
:1017600010220021684614F01DF802238DF8023083
:10177000044B2A462146684601930BF013FF05B03F
:1017800030BD00BF4117000080B505460E46174624
:1017900098460BF06BF9034614F014F80446DFF892
:1017A0001890424649F8003039463046A84754F868
:1017B000090001F083FA00BF080000002DE9F0479E
:1017C000058B04462807904611D4022905F0070529
:1017D00040F0CD8020460DF013FB78B10138218B0D
:1017E000042811D8DFE800F0C3106D8595000129A9
:1017F0000CBF45F0100545F02005258388F31188BE
:10180000BFF36F8FBDE8F08701F0070AAA4500F02B
:10181000A6800027B9463E46A368002B00F0BD8095
:1018200041F00801218388F31188BFF36F8FA1680D
:10183000002900F0BB800D68002900F0B780334616
:1018400052462046D1F80480C047002D76D02B6840
:1018500029461D46F0E701F007035A1F012A1BD84D
:10186000002221F00701062B276889B2C4E9002273
:1018700009D13B4603E0628B013262831B68002B77
:10188000F9D141F00201204621830DF0B9FA002878
:101890007BD041F0200177E0042B0AD121F0070131
:1018A00089B2204621830DF0ABFA10B141F020013E
:1018B0002183218B01F0070AAA4550D00027B946A1
:1018C000AAE7236921F0070141F00601062DD3F8AC
:1018D000009021832DD1B9F1000F40D041F00801D3
:1018E000218388F31188BFF36F8F20463949C84799
:1018F00029E021F00701236941F0040189B2042D98
:10190000D3F804902183E6D000274FF0040A3E4626
:1019100082E721F00701236941F0050189B2052D15
:10192000D3F808902183D6D000274FF0050A3E4611
:1019300072E700274FF0060A3E466DE72B4687E721
:10194000B9F1000FD1D14FF02003EFF3118883F3E9
:101950001288BFF36F8F238B23F008032383258B1B
:10196000EA062ED525F01003238305F007056669E6
:10197000218B002EBFF66FAF00232768C4E9003328
:1019800021F0070141F001012183218B4FF0000973
:1019900001F0070AAA457FF43FAF002F9BD041F02A
:1019A0000801218388F31188BFF36F8F002FC7D000
:1019B0003D6839463346524620460DF04DFA2F46D3
:1019C000F4E7AB067FF51AAF25F02003238305F07B
:1019D0000705FFE685EE0000044608B54FF020023B
:1019E000EFF3118382F31288BFF36F8F08F020FAB0
:1019F000204601F019F903480CF048FF00F010FEF2
:101A0000FCE700BF616D010000F01F0240090DD02E
:101A100001280DD1094B03EB8203D3F8002222F0F9
:101A2000E04242EA0171C3F800127047044BF2E74A
:101A30000023803253F82230FFDE00BF002884509C
:101A40000025845038B50124134B144DC3F80045CC
:101A500002230321C5F8D0360020FFF7D5FF20462A
:101A60000321FFF7D1FFC5F804472146C5F8044913
:101A70002120C5F8004BFFF7C7FF21462020FFF7C4
:101A8000C3FF21460B20FFF7BFFF21460A20FFF7C7
:101A9000BBFF002038BD00BF0010005000400050C8
:101AA00007B50DF1070011F0FAFF114B98421CD158
:101AB0004FF480620F4B1049C3F8B8254FF4006211
:101AC000C3F83C259DF8070011F0DDFF0B499DF898
:101AD000070011F0D3FF01209DF80730984008F06F
:101AE000EFFA002003B05DF804FB6FF00B00F9E79C
:101AF0000000AD0B00A002502CA0025028A1025003
:101B0000052370B5144D154E2C780134B4FBF3F356
:101B100003EB8303E41A11F09BFF114A137823B1FE
:101B200056F82430C01A072814D94FF05023D3F8A0
:101B3000141141B10021C3F81411D3F814312C70E1
:101B40000CB9012313702C7811F082FF46F82400A1
:101B5000012070BD0020FCE760210020D01500208E
:101B60005F21002048B1054B054A1B68B3FBF2F327
:101B70005843044B43F001031847704764040020A6
:101B800040420F00B05E010008F07CB90020014B1C
:101B9000186070470000072030B50C460E4985B02C
:101BA0000291D0F8AC110546CDE9003100F1E00119
:101BB0004FF0FF33204609F0F7FC50B9012384F8B9
:101BC0006430D5F8A83123B1204605B0BDE83040D7
:101BD000184705B030BD00BF9DF1000038B50C4678
:101BE000114605460DF0DCFA034638B9284604498B
:101BF0000DF0D6FA03460020236038BD0120FBE734
:101C0000697401002DE9F04F01238146056946689A
:101C100085B005F55977D7E8EF2F002A03D1C7E83B
:101C2000E13F0029F7D10CBF1A46002240F0B180F5
:101C3000B368B16A05F5E4781C1F10460DF035FB5A
:101C400084425FD8013A00F09E80B2FA82F24FF0EF
:101C50000044D44072682046073222F00302C5F8DF
:101C60006022B16A0DF021FBC5F86402B36A4046F8
:101C70006343033323F0030302EB4302230103EB2B
:101C80004403093323F0030303EBC403C5F85822CC
:101C90001A440832C5F854227368C5F85C42C5F886
:101CA00050323D4BC5E9A963316800F0BDF90446E7
:101CB00030BBD9F804A0D9F81090DAE9073409F557
:101CC000307B012B584608BF103C13F097F80023D7
:101CD000DAF8240031494FF4806201EB802100934F
:101CE000584623460AF00CFB09F52C702C4913F0DA
:101CF00047F8DAF8140083685C682CB96FF0570471
:101D0000002139E0013298E74B46264ADAF81810EC
:101D1000A04704460028F3D1DAF8140083681B6951
:101D2000002BEBD00122DAF818109847044600285F
:101D3000E6D11D4B2846C5F8A8311C4BC5F8AC317F
:101D40001B4B0393D5F810320293D5F80832CDE936
:101D50000083D5F86832B26AD5F8601300F02CF928
:101D600004460028CCD105F1E00009F0CBFC0028A6
:101D7000C5F868030ADB022138460DF046FA204612
:101D800005B0BDE8F08F6FF00B04B9E76FF01504F4
:101D9000B6E76FF07704F2E7F3F10000C029002006
:101DA000D9F10000CDF10000B51D000081F3000065
:101DB0003BF2000013B5044640B100230122CDE9F7
:101DC0000032074BD0E9091209F0A2FBA36E1B6891
:101DD00023B1E06E02B0BDE81040184702B010BD5C
:101DE0006974010013B504460846216901F559716B
:101DF000D1E8AF1F022910D193B1A0B10121CDE9E3
:101E000000311346D0E9091209F082FB074B9842D2
:101E100008BF6FF00B0002B010BD6FF00F00FAE7C3
:101E20006FF04C00F7E76FF00100F4E72EF8FFFFCA
:101E30002DE9F74388461546066906F55973D3E838
:101E4000AF3F022B5FD1136823B96FF0150003B0C9
:101E5000BDE8F0831B78002BF7D0D6F86093B9F17A
:101E6000000F33D106F5D8774FF0FF324FF0FF3334
:101E7000384609F0D9FF30462A6801A9FFF7AEFEBF
:101E8000019C1CB938460DF0BEF9DEE705F10803E8
:101E9000A3666B6984F86490E366E46360B13846D6
:101EA0000DF0B1F921463046236E2A68FFF774FE23
:101EB0000020C8F80040CAE72022296804F1400049
:101EC00013F029FB38460DF09EF9F1E730460F4933
:101ED0000DF066F904460028B7D005F108038366C3
:101EE0006B69C063C366002380F8643020222968D0
:101EF000403013F010FB22460121304600F03EF83E
:101F00000028D5D0A1E76FF00F00A0E769740100A9
:101F10002DE9F04F05460E4690460027D0F8B0A0B8
:101F200085B0AAF5AE7421463046FFF75DF8E0B9FA
:101F3000114BA4F1400B0293DAF810303246CDE990
:101F4000008329464FF0FF335846AAF5CE7909F0B1
:101F50002BFB60B97023012203FB079383F86420F5
:101F6000DAF80C300BB158469847703417B105B009
:101F7000BDE8F08F0127D6E7E3F300001FB5144654
:101F800090B18AB1012912D10A4B00F1E00102930C
:101F9000D0F8AC31403201934FF0FF33204600932C
:101FA00009F002FB04B010BD6FF01500FAE7002045
:101FB000F8E700BFE3F300002DE9F04387B00E46D9
:101FC000DDE90E811446DDE910251F4630B329B343
:101FD000DFF850C000F1E009002D08BF65469EB94A
:101FE000CDE9034400F5CE742046059612F0ADFC11
:101FF00003ABCDE900432A463B464146484609F03B
:10200000A7FB07B0BDE8F083002241460E92484688
:102010002A4607B0BDE8F04309F0C4BC6FF01500D4
:10202000EFE700BF111F0000F0B50E46044689B06F
:1020300000286FD001230246C3630023D0F8981014
:10204000364F403040F80C7C42F8301FCDE9013368
:102050004FF0FF330093C36D11F037FF304A06ABEA
:1020600092E8030083E80300184609F063F9054687
:10207000D8B904F1340009F03FF90546A8B939464A
:10208000284805AA11F0FDFE054670B9059B9A681F
:1020900072B10C33D4F89400C4F8A0300DF0D2F92A
:1020A000C4F8D40030B96FF00B05284609B0F0BD74
:1020B0000346EFE7D4F894000DF0C4F9C4F8D80053
:1020C0000028F0D0D4F88C30D4F8A010C4F8A83090
:1020D0000423C4F8AC30C4F8C4300223A362124B0A
:1020E000B4F89420D4F8D470C4F8B810C4F8D01060
:1020F000D4F89010236204F1A403A4F8B020C4F82B
:10210000A470C4F8C010A4F8C820C4F8BC00A6612C
:10211000E362CAE76FF01505C7E700BF9F6D0100D6
:10212000305D0100A96D0100DC6101000449431E1E
:102130000F3013F8012F8A5C83421A70F9D170476F
:10214000D06D0100F0B50746264E8DB001AD0C46AE
:102150000FCE0FC50FCE0FC596E8070085E8070024
:102160003846002F39D0002C39D0381F024621467E
:1021700010344B780D781B0443EA0563CD780431A5
:102180002B4311F8025C8C4243EA052342F8043FDA
:10219000EFD10421144C8A07036916D1C3F3074217
:1021A000A55C1A0EA25C42EA0562C3F30725655DD1
:1021B000DBB2E35C42EA054242EA032221F0030378
:1021C00030336B4453F82C3C534050F8042F01310A
:1021D00053402C290361DED101200DB0F0BD204613
:1021E000FBE700BF385D0100D06D01002DE9F04F25
:1021F000002703689DB002934368DFF8BCA10393F6
:102200008368DDE902460493C36805930369DDE949
:1022100004BE0693436907938369DDE9062C08939E
:10222000C36998460993089B0093CD590CAB2DBA0E
:102230005AF8049BDD514FEAF223A94483EAB21312
:10224000009D83EA72634B4425EA020502EA0C0909
:1022500085EA09052B44434486EA0B054FEA7438A6
:1022600088EAB408254006EA0B0985EA090588EAE8
:10227000B4580437A844402F03EB0E054344DE4610
:10228000DDF8008040F088804FF0100A4B490A9139
:1022900051460AF1010A0DF1700E0AF00F070EEB1C
:1022A000870757F8407C01F00F094FEAB7480197BC
:1022B00088EAF71801F10E0707F00F070EEB870702
:1022C00057F8407C09314FEAF74E8EEA774ECDF849
:1022D0002CE001F00F010DF1700E0EEB81010EEB01
:1022E000890959F840EC51F8401CBAF1400F71448B
:1022F000DDF804E088EADE08DDF82CE041448EEAEF
:10230000972E714405EA02084FEAF52E2CEA0507DC
:1023100087EA08078EEAB51EDDF828808EEA756E1A
:10232000774458F804EF49F8401C77440F4400996B
:102330004FEA733E394484EA0607CDF828808EEAD6
:10234000B30E07EA030704EA06088EEAB35E87EADB
:10235000080777440F4401EB0B0ECDF800C0B346DD
:1023600022D102993944016003991944049B4160C8
:1023700023448360059B3344C360069B734403611D
:10238000079B2B444361089B13448361099B63446F
:10239000C3611DB0BDE8F08FB346CDF800C026463E
:1023A00094461C462A4640E7944626462A461C4642
:1023B00075463B466CE700BF0862010044620100BD
:1023C00010B50446C8B1702200210DF08FF80B4BF8
:1023D0000B4A0C49C4E900230B4B0C48C4E9021317
:1023E0000B4BC4E9040301200A4BA36103F17453AE
:1023F000A3F52303A3F69243E36110BD85AE67BB4B
:1024000067E6096A72F36E3C3AF54FA57F520E51AA
:102410008C68059BABD9831F01480AF09BBE00BFA7
:102420000863010038B5044618B90F4B0F485B68C4
:1024300098476168B1F5683F10D0B1F5680F0DD0CD
:102440000B4DA9420AD011F46861206807D00146FB
:10245000084812F02FFB00232360656038BD14226A
:1024600013F0A0F9F9E700BF24050020D06E0100A9
:102470002C5F5CA9E41A002008B560B34368B3F58B
:10248000683F0ED0B3F5680F18D0144A934220D09D
:1024900000684FF0FF324FF0FF3309F0C5FC58B130
:1024A00015E001220368D3E8EF1F002903D1C3E838
:1024B000E02F0028F7D10AD1002008BD0368084AA0
:1024C0001B7803F5807352F82330002BF4D00548B5
:1024D000F3E70548F1E76FF4E040EEE72C5F5CA915
:1024E00000000350E98FFFFFEA8FFFFF08B520B31C
:1024F0004368B3F5683F09D0B3F5680F13D0114AAC
:1025000093421DD0006809F009FD14E00022036821
:10251000D3E8EF1F012903D1C3E8E02F0028F7D14A
:1025200009D0094808BD00210368084A1B7803F553
:10253000807342F823100020F4E76FF4E040F1E7E5
:102540000348EFE72C5F5CA9E98FFFFF0000035011
:10255000EA8FFFFF10B5044618B91D4B1D485B6894
:1025600098476368B3F5683F2FD0B3F5680F2CD058
:10257000194A934219D1236803BB4FF0FF324FF041
:10258000FF332146154809F05BFB08B923681BB9E6
:102590000F4B13485B68984714220021206813F002
:1025A00001F94FF46863636008E0B3F5683F0DD844
:1025B0003A2B03D040F6BA629342DED1206812F083
:1025C000BEFA636843F03A03636010BD054AF3E75F
:1025D00024050020D06E01002C5F5CA9E41A0020C5
:1025E000F66E01003A00003A08B50649402314226D
:1025F000054812F051FABDE80840044904480AF0C1
:102600001BBE00BFE4150020E41A00201063010087
:1026100024630100014910220A60704710ED00E0B8
:1026200072B6404080F31188BFF36F8F01B5FFF79A
:1026300067FA00280AD0BFF34F8F30BF00BF00BF3A
:1026400000BF00BF00BF00BF00BF00BFBDE801402A
:1026500062B6BFF36F8F704772B6494081F311883D
:1026600001B5FFF74DFA00280AD0BFF34F8F20BF06
:1026700000BF00BF00BF00BF00BF00BF00BF00BF62
:10268000BDE8014080F3118862B6704740B200286F
:1026900007DB01234109034A00F01F00834042F891
:1026A0002130704700E100E040B200280CDB01223D
:1026B0000649430900F01F008240203341F82320DF
:1026C000BFF34F8FBFF36F8F704700BF00E100E093
:1026D000054B420953F82220012300F01F0003FAA2
:1026E00000F01040704700BF00E100E040B2002859
:1026F00001F10101ACBF00F16040064B4FEA41110E
:10270000C9B2ABBF00F5614000F00F0080F80013C4
:102710001954704714ED00E030BFFFF7FDBF00BF54
:102720000B4A08B50B4B22F07F029A60BFF34F8F24
:10273000BFF36F8FD3F8882022F47002C3F888208B
:1027400009F0A0F90AF00AFA00F032FA09F0E4F907
:102750000000000000ED00E0094A0A49936809689A
:102760009867D96708494B6843F080534B60002352
:1027700083F31188BFF36F8F9368D86F704700BFE2
:10278000201F00203869010000ED00E016498A682A
:102790004FF030001044EFF3098C80E8F01F202048
:1027A00080F31288BFF36F8F104F4FF000664A69B5
:1027B0008A603E604FF07404141920680C4C20604D
:1027C000906F0023936780F3118802F1300090E846
:1027D000F01F8CF3098802F1000004B50DF0E2FA55
:1027E000BDE8044070470000201F002004ED00E019
:1027F000001B00201EF0040F0CBFEFF30880EFF366
:102800000980816911F8021C0229FFD001B50DF081
:10281000BAFA01BD42F8203C009B0B4942F81C3C2F
:10282000019B21F0010142F8183C029B42F8081C70
:1028300042F8143C4FF0807342F8043C0023203AE5
:1028400002658367704700BF891700000A4B446F19
:1028500098600A4B1C60436E83F30B88104681F32B
:102860000988002163B681F31188BFF36F8F0022BE
:102870000023FEF789FF00BF201F0020001B00205F
:1028800001B5EFF30580A0F110004FEAC000044944
:10289000014409C99847BDE80140024908470000C2
:1028A0004859010005290000114B124A2DE9F04159
:1028B000D518013DB5FBF3F5DFF83C805D430F4BC8
:1028C000074608EB0304013CB4FBF3F403FB045498
:1028D0000E1B30460A4912F058FF7019424600217B
:1028E000083E12F05FFF7E6704F10800BDE8F0814A
:1028F00001000000000000000400000004000000CF
:10290000245D0100044B99685869884203D003494B
:102910004FF080520A607047201F002004ED00E055
:10292000154B9A6A12F0007F9A6A14BF1E201D2070
:1029300012F0807F9A6A18BF1F2012F4801F9A6AD3
:1029400018BF022012F4002F9A6A18BF212012F437
:10295000802F9A6A18BF222012F4003F9A6A18BF8B
:10296000232012F4803F9A6A18BF24206FEA0242A3
:102970006FEA12429A62704700ED00E010B5194B01
:102980000246986A9C6A10F4805F14BF17201620D4
:1029900014F4006F9C6A18BF1820A40509D5986B21
:1029A000986A000404D51AB19A6A22F400429A6225
:1029B00019200C4B9A6A12F4806F9A6A18BF1A2079
:1029C000D2050CD49B6A13F4005F18BF1C20054A83
:1029D000936A43F47F43936200230B7010BD1B2066
:1029E000F5E700BF00ED00E010B51C4B0246986A09
:1029F0009C6A10F0100F14BF1120102014F0080F63
:102A00009C6A18BF1220A40709D5586B986A000663
:102A100004D51AB19A6A22F080029A6213200F4BF1
:102A20009A6A12F0010F9A6A18BF142012F0200F50
:102A30009A6A18BF1520D40658BF9B6A074B9A6A3A
:102A4000920642BF5A6A22F400525A629A6A42F0CF
:102A5000FF029A6200230B7010BD00BF00ED00E082
:102A6000F0B5474B04465B6800258BB0C3F3080301
:102A700085F31188BFF36F8F02F07F40B0F17F4F75
:102A800011D102F00C0008280DD010074CBF0C46E5
:102A900001250022033B8DF80720032B05D8DFE832
:102AA00003F02462665F2C46F3E700239DF80720BD
:102AB000CAB902AE04F120073246206861680834C2
:102AC00003C2BC421646F7D1099A002D53D0C2F377
:102AD000080121B96FEA52226FEA42220992184690
:102AE00002A90DF04EF90BB0F0BD254BDA6A910743
:102AF000DBD4DA6A002AD8DBDA6A5200D5D55A6903
:102B0000A16942F480725A61BFF34F8FBFF36F8F98
:102B10005A6931F8021C22F480725A61BFF34F8F58
:102B2000BFF36F8F4DF60272914209D09A6AD2B20A
:102B300042B101200DF10701FFF756FF0346B5E74B
:102B40002368B3E79A6A12F47F4F05D001200DF194
:102B50000701FFF713FFF1E79B6AB3F5803FA4D3AA
:102B6000FFF7DEFEEAE700200DF10701E4E70020B1
:102B70000DF10701EDE722F4FF7222F00102ADE74B
:102B800000ED00E0044B5A6942F010025A615A69A4
:102B900042F480625A61704700ED00E0EFF3088074
:102BA000EFF3098101B57246FFF75AFF01BD00BF7F
:102BB000002320210348C2180133452B82F800135B
:102BC000F9D1704700E100E0002080F31488BFF3E2
:102BD0006F8F002080F30A8880F30B88FEF7D4FF04
:102BE00000200E490860BFF34F8F0D4880F308881E
:102BF00000F03EF8202080F311880A484FF400616D
:102C0000401880F30988EFF314800221084380F311
:102C10001488BFF36F8FFFF783FD000094ED00E091
:102C200070490020303C0020BFF34F8F0549064B10
:102C3000CA6802F4E0621343CB60BFF34F8F00BF5A
:102C4000FDE700BF00ED00E00400FA050023184690
:102C50000649D1F89020C2F30722934200DB704767
:102C6000C1F89830C1F8A0000133F6E700ED00E0AC
:102C700010B572B6002484F31388FFF7E7FF2346EC
:102C80004FF0FF300C4A03F120010133102B42F8C2
:102C90002100F8D100234FF0FF30074A03F1600113
:102CA0000133102B42F82100F8D162B6BFF34F8FE9
:102CB000BFF36F8F10BD00BF00E100E0084B9B68C1
:102CC00083420BD1EFF3058343B1064B5A6842F0C0
:102CD00080525A605A6A22F400425A6209F0CCBE0D
:102CE000201F002000ED00E01FB5094C094A2346D3
:102CF0000121094800F0EAF800230393074B012162
:102D0000E41A01A80193029400F0EAF804B010BD9F
:102D1000000007200000002034630100700900203B
:102D200010B50C7A0B6804F01F0223F01F031A433E
:102D3000CB68640923F01F03054943EA440343F0C9
:102D40000103C1F89800C1F89C20C1F8A03010BD63
:102D500000ED00E02DE9F04F0F46144606464FF017
:102D600000084E4D85B0B84580F29480D6F80490A6
:102D7000B9F1000F36D0B9F11F0F40F2898019F078
:102D80001F0F40F08580D6F800A01AF01F0F7FD1EA
:102D900050460DF00BF8834609EB0A0001380DF0A0
:102DA00005F8834574D11BF1160F71D05C456FDDBA
:102DB000C5F898B0D5F89C10C5F898B0D5F8A030F3
:102DC00021F01F0143F01F0AD6E900321A4499424C
:102DD00002F1FF391ED1CA4508D131465FFA8BF0A6
:102DE0000CF0EDFF08F101080C36BCE73146C5F8E0
:102DF00098B0D5F89C3022F01F0203F01F03134354
:102E0000C5F89C30E0B20CF0DAFF10F1160F3FD09D
:102E1000441CE7E7C5F898B0D5F8A020013B23F0A3
:102E20001F0302F01F021343CA453146E0B2C5F842
:102E3000A030E8D00CF0C3FF10F1160F28D0C5F871
:102E400098B0D5F89C209DF808300AF1FF3A62F35B
:102E500004038DF80830D5F8A0309DF808205B08F1
:102E600063F347128DF80820D6E90032134400932B
:102E700023F01F03411C5344A3EB0903C8B223F002
:102E80001F030728039303D86946FFF749FFBFE7ED
:102E90006FF01504204605B0BDE8F08F00ED00E0AE
:102EA0000522044BC3F89420BFF34F8FBFF36F8FFD
:102EB000704700BF00ED00E0BFF35F8F0022024BC0
:102EC000C3F89420704700BF00ED00E010B5034C3C
:102ED0002278FFF73FFF207010BD00BF6121002066
:102EE0002DE9F74F294D8A4606464FF00008AB46BC
:102EF000274FD0451BDAD6F80490B9F1000F3FD028
:102F00003168084601910CF051FF0199044609EB24
:102F1000010001380CF04AFF84424FF014021D4BAF
:102F200008D002FB08F36FF015024BF8032003B042
:102F3000BDE8F08F14F1160F2C60F8D01978A1427B
:102F4000F5DD02FB08B0C7F89840C7F89840D7F8FD
:102F50009C4000F10801007B64F304000871D7F87D
:102F6000A0000C79400860F347140C71D7F89C104E
:102F700021F01F016960D7F8A01021F01F0129611D
:102F800008F1010814350C36B3E700BF041B00201C
:102F900000ED00E06121002038B50E4D2C68082CB2
:102FA00015D80020FFF788FF0B4B0C4AC3F8C02050
:102FB000844205D10A4B00201C70FFF771FF38BD19
:102FC000696801EB0011FFF7ABFE0130F0E74FF04D
:102FD000FF30F4E74463010000ED00E0AAFF440085
:102FE0006121002008B5024B1B689847002008BDEE
:102FF000181B0020034B044A1860937843F0020327
:1030000093707047181B0020D002002008B50649B5
:10301000064821F00701C1F1005202F5E0220BF051
:1030200097FE002008BD00BF2F6C0020705D0020BF
:103030001022044B0020C3F840244FF05023C3F863
:10304000140670470030005030B50024094D0A4B7B
:1030500085B028460293039411F0D0FE02AB2846B7
:1030600000934FF4A3620A23044909F049F920466A
:1030700005B030BDE00D0020756F0100C02D0020AF
:103080000146014809F0B2B9E00D0020037830B5DF
:10309000012B13D0022B27D07BB90A46184B03F122
:1030A000100453F8045BA34242F8045BF9D11B7887
:1030B000137043884B731B0A8B7330BD0A46104B49
:1030C00003F1100453F8045BA34242F8045BF9D106
:1030D0001B7813704368C3F307224B731B0CCB732D
:1030E0001B0A8A730B74E8E700F1100350F8042BF5
:1030F000984241F8042BF9D103780B70DDE700BF4B
:103100007E6F0100012838B505460CBF0648074808
:1031100010F07BF8044620B101210C3010F0D7F8F4
:103120002576204638BD00BFBC08002038080020A6
:103130000246002070B50B460A49D1E8EF4FC1E8BE
:10314000E50F002DF9D124B9BDE870400120FFF74B
:10315000D9BF01212082217604F10C0010F0B7F8CC
:10316000204670BD4001002070B504460F2C0D466E
:103170001046194605D80D2C0DD9BDE87040FFF753
:10318000D7BF132C07D10C4810F03FF8044638B9CC
:103190000024204670BD02460B4645B10748F3E7C0
:1031A00001210C3010F093F801232376F1E7012080
:1031B000BDE87040FFF7A6BF40090020900800203E
:1031C00038B5C368B3F801401B786BB90F212046AE
:1031D00001F0ECFE054640B9084B1A8822B96FEAA7
:1031E00004506FEA1050188038BD012101F020FE14
:1031F0002846BDE838400DF007BD00BF3221002051
:1032000010B5084C0146052294F86F0002F048F80A
:1032100038B994F86F000422BDE81040024902F06A
:103220003FB810BD00000020546F010010B501210F
:1032300004460C3010F089F82146BDE810400A23FE
:10324000014A00780CF014BF04640100F8B53F484F
:103250000FF0F8FF0446002876D0037E012B44D0FF
:10326000032B22D1038A032B0CD84FF40073384A66
:10327000384939480BF0D1FE404080F311884FF0B7
:10328000030002DF042104F10C0010F05EF847880F
:103290000688204605F0D2F9304DC6F30B0325F819
:1032A0001030238A2046BB4202D005F06DFA11E0AF
:1032B00005F0C4F90F2135F8100001F077FE05463E
:1032C00008B92046F1E72146320B0DF03CFC2846B8
:1032D0000DF09AFC224BD3F84431002B34D0BDE8DA
:1032E000F8402049204811F078BD038A012B0CD802
:1032F00040F65D23164A174917480BF08EFE4040F2
:1033000080F311884FF0030002DF022104F10C006A
:1033100010F01BF8054600780CF007FE83070CD46C
:1033200040F661230A4A11490B480BF076FE4040F3
:1033300080F311884FF0030002DF062321460C4A78
:1033400028780CF095FEBCE7F8BD00BF44010020D2
:10335000976F0100CB6F0100E46F01003421002062
:10336000000000201C030020000F0020017001005D
:10337000D4630100F8B50746907A0E46144605F06E
:1033800055F9284B83424BD1204605F057F90C23C1
:10339000254D03FB00504388BB4241D1234FD7F852
:1033A000400120B105F0F0F90023C7F84031204674
:1033B00005F044F90C2707FB005043689BB196B910
:1033C000204605F03BF9012107FB00504268D2E995
:1033D0000003127A03F01F07B9405B09D2B100EB7A
:1033E00083000CF0F0FD204605F028F90C2707FBC0
:1033F00000508368A3B1204605F020F978432E548D
:10340000204605F01BF907FB0055A868BDE8F84009
:1034100008F0F4BDC94300EB83000CF040FEE2E786
:10342000F8BD00BF140900201C1B00200000002074
:1034300038B5042104460C300FF087FF4578017839
:1034400022464088FFF796FF25B1BDE83840024884
:1034500008F0D4BD38BD00BF2801002038B50321D5
:1034600004460C300FF071FFE368057822461978A6
:10347000B0F80100FFF77EFF25B1BDE838400248F3
:1034800008F0BCBD38BD00BF2801002010B5C1E95F
:1034900000239DF808300C460B7205F0CFF80C2283
:1034A000024B02FB00335C6010BD00BF1C1B002000
:1034B0002DE9F0474FF0FF324FF0FF330646174833
:1034C0000F460FF0A2FE4FF00008044600F10C0A70
:1034D000012150460FF0FBFE204684F8188005F0CD
:1034E000ADF84FF00C090E4D09FB00504680204608
:1034F00005F0A4F809FB0050C0F80880204605F04C
:103500009DF809FB005503215046C5F804800FF0D3
:10351000E2FE068087702046BDE8F087140900208F
:103520001C1B00202DE9F041074615460C4686B0CD
:1035300021B9FFF7BDFF044600284DD0012200212C
:10354000684611F09AFB204605F078F80C23DFF866
:10355000948003FB0080C0F808D020460FF08BFE5B
:10356000014621480FF085FE4FF4A0220023684653
:1035700008F06AFD064688B14FF4A9731B4A1C493E
:103580001C480BF04AFD324639461B480BF045FDFE
:10359000404080F311884FF0030002DF204605F021
:1035A0004DF80C23584318F800606EB1204605F022
:1035B000EBF8092E13D00D2E0CBF6FF00B006FF03F
:1035C000040006B0BDE8F08115B12C600020F8E7DA
:1035D000204605F0D9F8F9E76FF06800F1E76FF0E1
:1035E0006E00EEE71C1B00204C010020976F0100CD
:1035F0002F700100E46F010038700100F7B5144B23
:10360000054693F99B300C46002B1DDA14B9204671
:1036100003B0F0BD082C4FF0000142F2180001AADF
:10362000264628BF0826FFF77DFF0028F0D1019F1E
:103630003246F9682846013112F0A7F8384605F0FD
:10364000A3F83544A41BE1E76FF08500E0E700BF75
:10365000000000202DE9F041054600266D4BB0F832
:103660000180198848F47042914286B004BF1E80E0
:10367000012600F08FFB2C78BCB13C2C35D100F03A
:10368000A3FE6FF0800110300CF009FD0020FFF761
:10369000B7FD054648B30473002101F0C9FB284675
:1036A00006B0BDE8F0410DF0AFBAEB782F1D012B4D
:1036B00008BF594B384608BF93F86F400CF031FCF7
:1036C0003946A8B104A80CF021FC05F111010DF157
:1036D00009000CF0A3FC01238DF80830EB78012BD6
:1036E00012D0132140460CF0B7FD06B0BDE8F081C2
:1036F00020460DF019F8014604A80CF094FC394658
:1037000002A80CF090FCE9E704A8FFF779FDEB783C
:103710000446012B0AD100F057FE07466FF08001E6
:1037200010300CF0BCFC38460DF07CF9002CD8D0E1
:1037300020460022B5F8013004A920F8883B0CF09F
:1037400072FCB5F81730A4F89E30B5F81930A4F81B
:10375000A430B5F81B30A4F8A630EB7822732F4ABA
:10376000012BC4E92F22E37015D102A904F18F00C7
:103770000CF059FC00F028FE217A274AC1EBC10168
:10378000114404F196000CF04EFCD2F8E4305906D6
:1037900001D500F0AFFF0721204601F049FB1EB123
:1037A0000121204601F044FB20460DF063FA637BC3
:1037B000072B2AD1231DD3E8AF3F13F4005F164E29
:1037C00018D1E3781BB196F8D8301A0712D5022128
:1037D00042F21600FFF76CFE054658B102210C308C
:1037E0000FF079FD238800220380294642F216005B
:1037F000FFF798FE96F8D930DB0706D500210223A3
:1038000020461A4600910CF060FD20460DF0FCF9B0
:103810006BE700BF32210020000000201B004801A0
:1038200000B5C16889B00B7801A88DF80030B1F8F7
:1038300001300431ADF8013011F8013C8DF803304E
:10384000B1F80730ADF81730B1F80930ADF81930DC
:10385000B1F80B30ADF81B304B7B8DF81D300CF000
:10386000E2FB07490DF10B000CF0D8FB0DF1110044
:103870000CF0D4FB6846FFF7EDFE09B05DF804FBE1
:10388000686F010029289ABF014B185C0920704716
:1038900089700100024BD3F864315B69184700BF9F
:1038A0000000002038B505460C4619B9FFF700FEA8
:1038B000044698B140F635439D4209D12046FFF7B2
:1038C000E9FF054640B1204604F05EFF284638BDBA
:1038D000214604480FF0CDFC0025F7E76FF068059E
:1038E000F4E700BF4C010020F8B5044604F0A6FE42
:1038F0001D4B33F81050A07A04F098FE214611F0C9
:10390000AEF91A4B93F88A309B062CD50F21284626
:1039100001F04CFB38B3437B073B012B03D9BDE8D7
:10392000F8400DF071B90DF06FF9052140F6354002
:10393000FFF7BEFD0446B0B100F10C070121384687
:103940000FF0C9FC01260421067038460FF0C3FCB5
:10395000002305808670C3702146BDE8F84040F61C
:103960003540FFF79FBFF8BD342100200000002044
:103970002DE9F0473C4FDFF8F48007F11409FB68AC
:1039800048466FF39433FB6001F00AFA451C4FF090
:10399000FF324FF0FF332946334809F0DBFA60B1BC
:1039A00040F6DE234246324932480BF036FB4040B7
:1039B00080F311884FF0030002DF2B4E15B908F099
:1039C000B9FFDCE7F368C3F38633042B42D1337BC2
:1039D000002B42D10022002327480FF01BFC044695
:1039E00060B94FF427634246244922480BF015FB87
:1039F000404080F311884FF0030002DFDFF880A021
:103A00004FF0FF324FF0FF331E4808F01DFBDAF88D
:103A1000400120B104F0B8FE0023CAF8403120462E
:103A20000FF029FCCAF840012046FFF733FF88B1A8
:103A3000144808F0E3FA204604F000FE0C22124B72
:103A40001F2102FB003022464088FFF793FC2046EE
:103A500004F09AFE1436013DB0E7012BFAD130692B
:103A6000383801F0E1FCF5E7E0020020976F010033
:103A70002F700100E46F01004C010020667201000C
:103A800000000020280100201C1B00202DE9F0412F
:103A9000044600F10C0630460FF067FCB4F81080C5
:103AA0000546B8F1010F0CD840F685631B4A1C4946
:103AB0001C480BF0B2FA404080F311884FF003002D
:103AC00002DF304602210FF040FC074600780CF080
:103AD0002CFAC20706460CD440F689630F4A1249F5
:103AE00010480BF09AFA404080F311884FF0030021
:103AF00002DF052321460D4A38780CF0B9FAB307E6
:103B000007D56369A4F8108013FA85F5E560BDE870
:103B1000F0812046BDE8F04104F036BE976F010009
:103B2000CB6F0100E46F010064700100AC63010021
:103B300038B5037E0446012B0AD0032B16D121464B
:103B40000D480FF069FB0D490D4811F046F90BE0E7
:103B5000C36818780CF0E9F9C207054602D520467B
:103B6000FFF794FFAB07EAD4002038BD04F00CFE49
:103B70006FF01500F9E700BF440100201C0300208E
:103B8000000F0020084A0346D2F8640130B9D96812
:103B900039B1596929B1C2F8643170476FF07700C3
:103BA00070476FF0150070470000002004210148A5
:103BB0000CF009BAD400002010B5FDF7ADFA034BA4
:103BC0001B6813B1BDE81040184710BD941B0020BE
:103BD00070B52E4D0646D5F8643188B0002B4FD015
:103BE0006FF0020105F1D4000CF059FA01210CF03C
:103BF000EAF910EA010446D1254B1E600A4605F594
:103C0000947011F03AF805F5A67011F011F8002241
:103C10000023CDE906236FF008034FF48062CDE95D
:103C20000243CDE900441B4B1B4904941B4808F098
:103C300073F81B49194810F069FF1A4811F0DEF8B3
:103C40006FF007034FF4966217491648009408F086
:103C500057FB1649134810F059FFD5F86431DB685B
:103C60009847044648B926B908B0BDE87040FDF74A
:103C700053BA05F1C40008F03DFB204608B070BD02
:103C80006FF01204F9E76FF07704F6E70000002008
:103C9000941B002071390000D8320020800E0020D3
:103CA0007D700100000F0020D836002083700100D5
:103CB000004870471D6D0100F8B506460024094D07
:103CC000EF79E3B29F4202D86FF0010007E0294686
:103CD00030460CF071FC0735631C08B12046F8BD76
:103CE0001C46EEE70000002037B504460D4671B1D2
:103CF000284612490CF060FC48B929461048C4EB2C
:103D0000C40420440CF065FC002003B030BD6846BC
:103D10000CF0EEF80028F8D16846FFF7CDFF002838
:103D2000F5DA074BC4EBC400694618440CF051FCAB
:103D3000002DE9D001462846E4E700BF5B6F010093
:103D40000000002038B506221149054611F0C1FBDC
:103D5000C8B1062142F20500FFF7AAFB0446A0B154
:103D6000062229460C300FF0BCFA0022214642F20E
:103D70000500FFF7D7FB38B9054829460CF024FCAD
:103D8000012300F8013C002038BD6FF06800FBE71C
:103D900069000020084BD3E8EF2F22F40041C3E86C
:103DA000E01F0028F7D1130404D5002202200349A4
:103DB00004F02ABB704700BFD40000208707010031
:103DC000002307B50549CDE900036A46022004F047
:103DD0001BFB019803B05DF804FB00BFAF060100B8
:103DE000F7B5054670B1444C94F8202194F8213180
:103DF0000AB19A4208D2013384F821312B7A43F078
:103E000004032B7203B0F0BD00210622084601F026
:103E100047FA064688B1D434D4E8EF3F43F4004370
:103E2000C4E8E23F002AF7D12B7A43F001032B725A
:103E300003B0BDE8F0400CF0E7BE01462F4800F0AB
:103E4000BDFA94F82131B3B994F8212194F82031C6
:103E50009A421FD1002242F229001146FFF762FB6D
:103E600070B994F82131013384F821312B7A43F071
:103E700004032B7204E030460CF0EEFB0028E3D084
:103E800001200CF0E9FB00211D4803B0BDE8F04023
:103E900000F094BA2A466F1C394612F82A0B0CF02F
:103EA0009FFB06460028EBD194F82131013384F8BA
:103EB00021312B7A43F004032B7294F8A7305B076F
:103EC000DED5394668460CF084FB0123082142F216
:103ED0004E008DF80730FFF7EBFA04460028CFD0EC
:103EE000694608220C300FF0FCF93246214642F2B6
:103EF0004E00FFF717FBC3E7000000200507010095
:103F0000890601002DE9F041054640B33A4C94F88A
:103F1000202194F82131D2B10132934218DC0021E2
:103F20000622084601F0BCF90646D0B1D434D4E8E4
:103F3000EF3F43F40043C4E8E23F002AF7D12B7A75
:103F400043F002032B72BDE8F0410CF05DBE13B1EB
:103F5000013B84F821312B7A23F004032B72BDE856
:103F6000F0810146254800F029FA30460CF074FB38
:103F7000074688B994F8213194F820219A4217D243
:103F8000013B84F821312B7A024623F004030220FE
:103F90001B492B7204F038FA94F8213113B1012037
:103FA0000CF05AFBBDE8F0410021164800F006BABB
:103FB000072142F22800FFF77BFA05F101080646C7
:103FC0000028E9D007210C300FF085F941460CF0AC
:103FD00000FB3A46314642F22800FFF7A3FA0028D8
:103FE000DAD194F82131013B84F821312B7A23F086
:103FF00004032B72D0E700BF00000020050701007A
:10400000430601008906010070B50D46044698B1CB
:104010001D490CF0D1FA78B92378012B02D06FF04A
:10402000150070BDA37903F0C003C02BF7D1204663
:10403000FFF742FE002821DA002DF0D1134DEB7975
:10404000012B1ED005F1D403D3E8AF3FDB0707D423
:10405000002CE4D020460C490CF0AEFA0028DED14A
:10406000EE792146731C3046EB71FFF73DFE08B92F
:104070003046D6E7EB79013BEB71D2E76FF0770082
:10408000CFE76FF00B00CCE75B6F01000000002072
:10409000F7B50446C8B1002141F2090001AAFFF7B3
:1040A00041FA064688B9019F0622FD680D4901358F
:1040B000284611F00EFA28B1062228460A4911F0C6
:1040C00008FA28B9384604F05FFB002003B0F0BDC1
:1040D0002946601C0CF078FA3846267004F054FB30
:1040E0000120F3E7686F0100626F010007B56846C1
:1040F000FFF7CEFF044BD87118B169460020FFF7D7
:10410000F3FD03B05DF804FB00000020F7B5184B89
:10411000054693F8C2300E46DB0703D40024204640
:1041200003B0F0BD00214FF6094001AAFFF7FAF9EC
:1041300003460028F2D101981627C268547802324B
:10414000B44228BF34469C4202DC04F01DFBE6E783
:10415000114607FB035602F1140C51F804EB6145BC
:1041600046F804EBF9D10988013331801632EAE7C9
:104170000000002070B5154D88B0EC792CB90121F4
:1041800002A8FFF7C3FFE871C0B90021084608B0D4
:10419000BDE87040FFF738BF02AB06FB02310DF1FE
:1041A00001000CF011FA0123694610468DF8003029
:1041B000FFF79AFD013410B108B070BD1626EB79F7
:1041C000E2B29342E8D80020F6E700BF00000020EA
:1041D0002DE9F04190460E461D460246002852D079
:1041E000002B50D03103047807D573074BD40CF063
:1041F000AFFA88BB01232B702DE0F7072ED5234F94
:10420000B8F1000F13D0B0060AD4C4EBC403FB5CB2
:10421000012B11D02B70B2061DD543F00203EAE743
:1042200097F8D8305906F0D46FF0850014E0C4EB4D
:10423000C403FB5C012BDED1072101FB0471104696
:1042400001310CF07DFA38B9C4EBC4043B5D2B702E
:10425000B8F1000FDFD10020BDE8F08173070ED563
:104260000A4EC4EBC407F35D012BC4D1072111FB37
:10427000043131440CF064FAF35D2B70ECE70CF080
:1042800067FA0123F9E76FF01500E5E70000002069
:1042900010B50A4CE3790BB1002010BDFFF726FFE3
:1042A0000028FAD1E379002BF6D1FFF763FF00284D
:1042B000F3D1601CBDE81040FFF744BD00000020B2
:1042C000F8B545680646690535D4046914B115F09A
:1042D000010330D0194F3078FB7983422BD9C0EBE2
:1042E000C00007221649384411F0F3F8A8B115F0C0
:1042F000010306D197F87020082A02D8B2689F2AD5
:1043000019D915F0300F09D0ACB1EA060AD405F47A
:104310006035B5F5603018BF0120F8BDEB0601D45B
:10432000002CF4D1D6E902239A4204D81F2A02D9DC
:10433000B3F5804FEBD90020EFE700BF000000206D
:104340005B6F0100072208B50349093011F0C1F87D
:10435000003818BF012008BD5B6F0100F8B5154B90
:10436000067804460D4683F86F60FFF7EBFF70B9DF
:104370003046114900F05CFF044610B96FF00B00A5
:10438000F8BD042100F054FD00202C60F8E704F192
:104390000907394630460CF0FBFC40B92078394615
:1043A00000F046FF04460028E8D00521EAE76FF058
:1043B0001500E5E700000020546F010003460148A6
:1043C000184700BF18000020004870471800002060
:1043D0002DE9F04F9A460023D1F810908DB0B9EB3B
:1043E00003050646894818BF0125059207930CF07E
:1043F000E9F90C46410740F1FD802046FFF760FFD8
:1044000028B96FF0150B58460DB0BDE8F08F204667
:104410000CF0B5F980460028F3D006F110073846B5
:104420000CF0D0F90206C0F3C01300F1E680CDE92C
:104430000933CDF82B30A3686068ADF82030E3680D
:104440006FF40051ADF822300CF0ADF98DF82D006D
:104450006E480CF0BAF923786D4A337082F86F30E9
:1044600030462A4661680DF12503FFF7B1FE834609
:104470000028C8D106F10900B9F1000F13D0216955
:104480000CF0AEF920460CF096FA63680546D807A2
:1044900016D49A0503D4169B0BB9022D4CD10223D6
:1044A0008DF8243019E05B490CF09AF920460CF0A5
:1044B00082FA63680546D907EBD58DF824900CE0A5
:1044C00013F0100F0CBF0123042321690DF1260006
:1044D0008DF82430D8460CF083F90F2142F2060003
:1044E000FEF7E6FF8346002800F08A800F2208A925
:1044F0000C300EF0F6FE0022594642F20600FFF79D
:1045000011F800287FD1B9F1000F1BD06368DB07D9
:1045100026D4304601210CF05EFA079E834600281F
:1045200060D0002E3FF46FAF3046002100F080FCD9
:1045300030460CF069FB66E70323DDF858808DF800
:104540002430CAE7179B524600933046CDE90185D7
:10455000169B05990CF0BDF983460028D6D052E78A
:10456000304607A9FFF7FAFE83460028D1D010F1A4
:104570000C0F7FF448AFB9F1000F7FF444AF6368CC
:1045800098073FF540AF626882F00202C2F3400B29
:104590000BF001020E2138460CF088F96B1E5A42CE
:1045A0005A41082138460CF081F9A91E4A424A4175
:1045B000384609210CF07AF962680A21384602F07F
:1045C00001020CF073F942460B2138460CF06EF9EB
:1045D00062680D213846C2F380020CF067F94FF093
:1045E000000B10E716B130460CF00EFBB9F1000FCE
:1045F000CED1C8E76FF00A0B05E76FF0770B02E743
:104600006FF0680BFFE68346FDE600BFD400002094
:10461000000000205B6F010073B51546069A0C463A
:10462000CDE900322B460A4601461148FFF7D0FE7D
:1046300021460646002340F201109D4202D1304639
:1046400002B070BD0A88824204D14A6812B1127861
:10465000D20702D401330831EFE70649064810F0CB
:10466000D3FB4FF470220023034807F01DFFE6E759
:10467000180000202B0A01003000002010B5194856
:104680000CF0D0F96FF4804117480CF09EF81648F2
:104690000CF098F803461A06C0F3C01021D5124852
:1046A0000CF090F8430513D50E48FFF74BFE034678
:1046B0000E49087E93B904220D4900F0F1FD04462D
:1046C00030B10021017300F0B3FB20460CF09CFADE
:1046D000BDE81040002103480CF07DB905222131CE
:1046E000EBE710BD1800002028000020000000208B
:1046F000546F010073B530480CF064F810F4804F2B
:104700002D4C56D020460CF05DF8030651D42046BF
:104710000CF058F846054CD501A9A4F11000FFF79C
:104720001DFE002845D1A4F11000FFF70BFE024644
:1047300020460CF047F8C0F3803120460CF042F8D8
:1047400081F0010145054FEA41011B4848BF41F096
:1047500001010CF037F8800448BF41F0040117480C
:104760000DF10303FFF734FD054610BB012113488B
:104770000CF031F9019E28B9304602B0BDE8704016
:104780000CF042BA2946304600F052FB6FF48041EB
:1047900009480CF01AF8054630460CF035FA6B045F
:1047A00007D5D4E8EF3F43F48043C4E8E23F002A52
:1047B000F7D102B070BD00BF280000201800002013
:1047C00030B58DB0202104A8FEF718FF0446C8B903
:1047D00010F0A6FC4FF47A75A0FB053205FB012111
:1047E000DB0B43EA4143C90BCDE902310823202208
:1047F000009306486B4404A90BF05FFA002808BF39
:104800006FF0040420460DB030BD00BFA00F0020A3
:1048100007B508216846FEF7F1FE38B90822694657
:1048200005480BF02AFA20B1FFF7CAFF03B05DF884
:1048300004FB6FF00400F9E7A00F002038B50D4627
:10484000044698B191B10B4A0BF050FA431C07D1C2
:10485000FFF7B6FF48B929462046064A0BF046FA4C
:1048600001280CBF00206FF0040038BD6FF0150068
:10487000FBE700BFA00F0020402208B5034910F05D
:1048800028FEB0FA80F0400908BD00BFDB700100CF
:1048900070B52B4B93F8A23003F00603062B46D1DC
:1048A000002847D0274E326832B1131F834244D0CC
:1048B0005B680BB1043BF9E742607268031D33602B
:1048C00002B97360204CD4E8EF2F42F02003C4E813
:1048D000E13F0029F7D112F0200202D0002528463E
:1048E00070BDD4E8EF3F23F01003C4E8E13F002996
:1048F000F7D1114642F22500FEF714FE05460028C6
:10490000ECD0D4E8EF3F23F02003C4E8E23F002AD4
:10491000F7D134683CB154F8043C043C0BB100209E
:1049200098476468F6E70023C6E90033D7E76FF0DD
:104930008505D4E76FF01505D1E76FF07705CEE771
:10494000000000209C1B0020D4000020044BD3E872
:10495000AF3F13F0100F034808BF0020704700BF9F
:10496000D40000206221002070B51D4E044633683B
:104970008B422FD013B16FF00F0070BD194BD3E8ED
:10498000AF2F9206F7D4D3E8AF3FDB0625D53160D1
:1049900042F226004021FEF78BFD0546B8B14021CA
:1049A0000C300EF098FC234604F1400253F8041B2F
:1049B000934240F8041BF9D10022294642F2260016
:1049C000FEF7B0FD0028D8D000233360D5E76FF0A4
:1049D0006800F9E76FF07700CFE76FF07C00CCE775
:1049E000981B0020D4000020F8B5194BC568D3E807
:1049F000EF2F22F02002C3E8E12F0029F7D12A7817
:104A00008AB914496A1C05F1410052F8044B8242EC
:104A100041F8044BF9D1D3E8EF1F41F01001C3E88E
:104A2000E21F002AF7D10C4E34686CB1094F043CE8
:104A300023682BB12A78002A0CBF384600209847FB
:104A400064680CB1043CF3E70023C6E90033F8BD09
:104A5000D4000020622100209C1B002005490B6827
:104A600033B1C26800200860117801B9501C1847A2
:104A7000704700BF981B002070B504460A4B1D68A4
:104A800025B90A4D0A4EB54207D370BD2B6813B144
:104A90002046217B9847ED69F2E72B6813B1204649
:104AA000217B98472035EEE7D41B0020EC5B01000A
:104AB000EC5B01002DE9F04104464FF00008144F73
:104AC0004FF02002EFF3118382F31288BFF36F8F50
:104AD000216A29B983F31188BFF36F8FBDE8F08194
:104AE000606A0A68814208BF6262226283F31188A9
:104AF000BFF36F8FD1E901563846C1E90188C1F88B
:104B00000C8010F0A1F8002231462046A847D7E7D4
:104B100020080020002270B50446D1E90156CA6081
:104B2000C1E90122054810F08FF8314620462B4696
:104B3000BDE870406FF06D02184700BF20080020EC
:104B40002DE9F84FDFF850811F46B8F804310446CC
:104B5000002B08F584700E4608BF00201546002281
:104B6000002307F071FA002840F09380002D6FD0E9
:104B700005F10C0A5046B8F804B10EF0FAFB58459E
:104B800060D9B8F804B156F80C1F5A4650460EF0DA
:104B9000A8FB594630460EF0D0FB637BAE69072B6D
:104BA00074D14FF02003EFF3118283F31288BFF327
:104BB0006F8F002E57D000233360A369002B4FD195
:104BC000C4E9056682F31188BFF36F8F042105F1F4
:104BD0000C000EF0A1FB238807F0FD0743EA07371E
:104BE00007802B8A043B4380022328462B76FEF75E
:104BF00051FE074618B34FF02003EFF3118783F3FC
:104C00001288BFF36F8F002E3AD0314604F11400A2
:104C10000BF044FF87F31188BFF36F8F6FF0040729
:104C2000B8F804311D48002B08BF002007F0E6F952
:104C30002EB1002331462046AB61FFF76BFF3846AB
:104C4000BDE8F88F50460EF094FB1FFA80FB9AE700
:104C50000022002304F138000EF0DCFA05469CE740
:104C60001E60A661AEE7A36933B103F10C09DB68EE
:104C70000133C9F80030A5E7E36904F11C09F7E73F
:104C8000D9F80030013BC9F80030C3E76FF07F0767
:104C9000C6E76FF06807D2E7000000200801002097
:104CA0000448B0F8043100F58470002B08BF0020E0
:104CB000704700BF0000002038B5002204468A4239
:104CC00002D10024204638BD012004F1C403D3E8FA
:104CD000EF5F002D04D1C3E8EC0FBCF1000FF6D15B
:104CE00002D0C8340244EAE7002CEAD0C4220021F2
:104CF000204610F057FD04F15800044910F084F8E4
:104D0000034904F1280010F03BF8DBE74D530000A5
:104D1000E90A0100F8B51F46CB7A0646072B0D4677
:104D2000144631D9437B072B1CD15AB310F04AFDEE
:104D3000184B1A58184B9A42184807BF00220023F4
:104D40004FF0FF324FF0FF3307F024F9F8B1737BD7
:104D50000022072B09D00146C0E90122C2600F489A
:104D60000FF072FF6FF07F00F8BDC0E90147C2602D
:104D70000024A861294606F138002C770EF079FA54
:104D80002046F1E71046F3E76FF01500ECE76FF00F
:104D90006800E9E708000000D8140020200800207F
:104DA00070B504461E4810F06DFB0022012120461C
:104DB0001B4B10F04AFB04F114061A4BD3E8AF2F3B
:104DC0000AB9012070BDA3F1C40513F8B73C53B96B
:104DD0006FF04001281D0BF07CFE430603D52846EA
:104DE0000BF08EFEEDE76B7B072BEAD10E4BB3F891
:104DF0000421002AE5D0D3F81021A96B59B152B98A
:104E0000022103F58473304610F01FFB01230220BA
:104E100084F82030D6E700220421044BF3E700BFDA
:104E20002C0300209C110020000000201011002005
:104E30002DE9F041457B04468D4200F0948041739A
:104E400025B98378082B01D00BF0CAFE637B012BB8
:104E50001DD10027534D05F584764FF02002EFF366
:104E6000118382F31288BFF36F8FE269002A74D036
:104E7000013AE26183F31188BFF36F8FB5F8043113
:104E8000002B14BF3046002007F0B8F8E5E7072BE9
:104E900009D0002B67D1A378042B24D12046BDE88C
:104EA000F0410BF0B1BEA378042B5CD004F13800C4
:104EB0000FF0BEFE00213C4808F0A8F80023C4E92A
:104EC0001433E378012B4ED1A37804F15800012B61
:104ED00004BF032384F8AC304FF42032BDE8F04126
:104EE000002307F0ADBA013D052D3CD801A353F8CE
:104EF00025F000BF0D4F00004D4F00009D4E0000FB
:104F00009D4E00004D4F00004D4F00002046FFF722
:104F1000D1FDA378012B0AD104F1580528460FF0E2
:104F20007FFF10F00C0F02D028460FF07BFF0434F7
:104F3000D4E8EF3F43F04003C4E8E23F002AF7D152
:104F4000BDE8F0410021184808F060B8237B002B31
:104F5000A4D02046FFF790FDA0E7616929B983F34B
:104F60001188BFF36F8FBDE8F081A0690A688142A4
:104F700008BFA261626183F31188BFF36F8F4FF0A6
:104F80002002EFF3118382F31288BFF36F8FCA6898
:104F9000E261CF6083F31188BFF36F8F2046FFF784
:104FA000B9FD6BE7000000202C030020024610B57D
:104FB00007480C4601210BF03BFE034610B90023C5
:104FC000184610BD82781442FAD10BF01DFEF6E7A8
:104FD000D8100020F8B5074609480D4616460BF0D4
:104FE000FFFD044650B183781F4203D1BDE8F8406D
:104FF0000BF00ABE3146A8472046F7E7F8BD00BFD0
:10500000D8100020034BC01A034BC0105843C0B245
:10501000704700BFD8100020295C8FC238B50D46FC
:105020000649002808BF08460EF0EFF8044618B1FC
:10503000691D0C300EF04BF9204638BD6408002085
:10504000F8B504460430D0E8AF3F9B0511D5B4F85D
:105050009E30B4F8A0209A420BD8B4F8A2209A420D
:1050600007D3D4E929239A4203D16FF400710BF0DE
:1050700030FD104B1D6825B90F4D104FBD420CD3AC
:10508000F8BDEE683EB12046B4F8A630B4F8A420CE
:10509000B4F89E10B047ED69EDE7EE683EB12046EA
:1050A000B4F8A630B4F8A420B4F89E10B047203568
:1050B000E4E700BFD41B0020EC5B0100EC5B0100C7
:1050C000F8B504460C4B00F1BC061D6835B90B4D14
:1050D0000B4E04F1BC07B54207D3F8BDAB6913B161
:1050E000314620469847ED69F0E7AB6913B1394680
:1050F000204698472035EEE7D41B0020EC5B0100EA
:10510000EC5B01002DE9F041074608460C460BF028
:1051100007F9054618B900252846BDE8F081134B6C
:105120001E6846B9124EDFF84C804645F4D2B3688B
:1051300083B92036F9E7B3680BB9F669F1E7214680
:10514000384698470028E6D020460BF0E9F80028BA
:10515000F3D1E0E72146384698470028DBD02046C7
:105160000BF0DEF80028E4D1D5E700BFD41B002007
:10517000EC5B0100EC5B01002DE9F041C3780446D3
:1051800073B900F19606104B04F188071D6855B9F4
:105190000E4D0F4F04F18808BD420CD3BDE8F081DD
:1051A00000F18F06EFE72B691BB13A4631462046E6
:1051B0009847ED69EBE72B691BB142463146204623
:1051C00098472035E8E700BFD41B0020EC5B0100C6
:1051D000EC5B0100F8B5437A0446837216460BF087
:1051E00066FE0C4B1D6825B90B4D0C4FBD4208D314
:1051F000F8BD6B691BB132462046617A9847ED696C
:10520000F1E76B691BB132462046617A9847203539
:10521000ECE700BFD41B0020EC5B0100EC5B01005D
:10522000024B1A681860C261704700BFD41B00208F
:1052300038B505460C460B480121FFF73DFD80B10E
:1052400005722368C0F88830A388A0F88C30A37951
:1052500080F88E300123437283728370024BC0F852
:10526000A03038BDD81000201800280070B50546C1
:105270000A480E460BF0B4FC044620B18378012B9B
:1052800004D00BF0C1FC0024204670BD32462946F4
:105290000BF05EFD0028F7D12046F2E7D810002081
:1052A000F8B505460E480E4617460BF099FC044625
:1052B00020B18378012B03D00BF0A6FC00240DE075
:1052C00036B1324629460BF043FD08B92046F3E7D4
:1052D000637BBB42FAD1237AAB42F7D12046F8BDBB
:1052E000D810002038B5044608460D460BF018F8D3
:1052F00038B3154B93F8D830990707D4E37873B1D6
:1053000029462046BDE8384000F0A8B994F8AD30F1
:105310009A07F3D5231DD3E8AF3F5B05EED42946AA
:1053200020460BF04FFD58B92B88A4F8A0306B88AD
:10533000A4F8A230AB88A4F8A830EB88A4F8AA306F
:1053400038BD6FF01500FBE700000020F7B510F83E
:105350004B3C0446A0F15806FBB930460BF08FFDDC
:105360002A4B1D684DB92A4D2A4FBD420DD33046F8
:1053700003B0BDE8F0400BF047BC6B681BB1304692
:1053800014F84C1C9847ED69ECE76B681BB130468C
:1053900014F84C1C98472035E7E710F8563C012BD1
:1053A0001ED1A0F154056FF4007128460BF091FB5B
:1053B000830517D5A36C69460093236D304601938E
:1053C000FFF790FF20B96FF4807128460BF081FB46
:1053D000D5E8EF3F43F08003C5E8E23F002AF7D16C
:1053E00003B0F0BD6B460C4A1068516803C36946B0
:1053F0003046FFF777FF0028EAD1D5E8EF3F43F4C6
:105400008073C5E8E23F002AE2D0F6E7D41B002013
:10541000EC5B0100EC5B0100645E010001460148A9
:10542000FFF7FCBDE80800202DE9F047437B054667
:105430005BB96FF0400104300BF04BFB430604D521
:105440002846BDE8F0470BF05BBB05F138000FF0D4
:1054500010FC044660B940F29733344A3449354869
:1054600009F0DBFD404080F311884FF0030002DFBC
:1054700020460DF000FFDFF8C090028AB9F8043131
:1054800004469A42027F07D832B9022321462846B1
:10549000FFF756FB064632E017464FF0000A228A15
:1054A000B9F804319A4204D8012300222377032358
:1054B000ECE74FF0FF334FF0FF320020FFF7AEFF75
:1054C0006B7B8046072B06D003F05EF92046BDE8D3
:1054D000F04703F059B9C0F818A080F81CA0637F0A
:1054E0000246437721463B462846FFF729FB0646FE
:1054F000B8B107F001074046277703F045F9204689
:1055000003F042F905360ED10023A6692046A361B7
:1055100003F03AF93EB131462846BDE8F047FFF7BF
:10552000F9BA0127BBE7BDE8F08700BF227101008F
:1055300066720100E46F0100000000200B4B58B1BF
:105540001A6862B942693AB942685AB982684AB976
:10555000C2683AB982692AB91860002070476FF0B2
:10556000770070476FF01500704700BFE01B002008
:1055700010B50C480FF05CFB0B490A480FF064FBB8
:105580000A4908480FF060FB094906480FF05CFB28
:1055900000F02AFE02F0FCFE044608B90BF01EFDE6
:1055A000204610BD20080020A41B0020B41B0020B2
:1055B000C41B0020044B186818B9044A5A600B60D9
:1055C00070476FF00B007047E41B002084640100FB
:1055D000F7B5044600261F4D1F4FBD4201D303B04F
:1055E000F0BD20466B6801A9984700282CDB019B81
:1055F0002A889A829A84A86803F11002D2E8EF1FE1
:10560000C2E8EC6FBCF1000FF8D19E60616D03F150
:105610000802D9B9C4E914221C60D8600198436813
:105620001B6803B19847019B1033D3E8EF1F41F08B
:105630000101C3E8E21F002AF7D101984368DB6942
:1056400013B100F1100198470C35C6E70A60626596
:10565000E2E700BFC85B0100EC5B010073B5174BCC
:105660000E46197805460131C9B2012938BF01211A
:105670000822122019700BF0D6FB0446D0B1082185
:105680000C300DF028FE33882246038073880521F4
:105690004380B3888380F388C38000232846009327
:1056A0000BF025FC054610B1204603F06DF82846A6
:1056B00002B070BD6FF00B05F9E700BFA22100201A
:1056C00023281FD81A2804D8431E182B0ED90620C9
:1056D0007047A0F11B03082B1ED8DFE803F0051D5F
:1056E0001B231D19251D05000320704701230F4AA8
:1056F00083401A40C2B90E4A1A40002A14BF012042
:105700000620704700F07F03522B05D10020704720
:10571000012070470520704710F0400F0CBF062095
:10572000002070470420704702207047AAAA8A020E
:1057300054554501011F01480FF0BCB93C0700203A
:1057400010B5044678B10B4B98420CD33C339842C9
:1057500009D20021142210F025F82146BDE810409E
:1057600005480FF071BA2046BDE810401422002110
:1057700010F018B8141C0020080800202DE9FF4183
:105780004FF000084FF4205305460E46006802A96A
:10579000144617688DF80880ADF80A300AF05AFBF5
:1057A000A0B142F60103286803A98DF80C80ADF87A
:1057B0000E300AF04FFB48B123691BB15A88B24240
:1057C00000D25E80012004B0BDE8F08161682868E5
:1057D0000AF040FB10B100232361F3E7E368A068FF
:1057E0001A786AB1B7F81AC0798D038A8C4594BFCC
:1057F000C3EB0C03C3EB0103934201DA0020E2E7A1
:1058000004210C300DF067FD2061068023692946D4
:105810005E80074B0194009338460023A2680BF08A
:10582000ADFD0028EADB2069003818BF0120CAE777
:10583000A51201002DE9F8430F46438D418B01323B
:105840008B4228BF0B469A42064625D83846FFF7BA
:1058500037FF022824D004283FD04FF0FF384FF004
:10586000FF39002142464B4608460BF03DFB0446FB
:1058700090B10FF0A7FF1B4B1A581B4B9A421B48C5
:1058800007BF0022002342464B4606F083FB054635
:10589000D0B9204602F078FF00242046BDE8F88306
:1058A0000F2F1AD0212F18D0B36D002BF4D1706DAB
:1058B0000DF0E1FC04460DF0A3FC092104F10C00FD
:1058C00006F158050DF003FD2E600121A56104F1DC
:1058D0000C000DF000FD0770DFE74FF470284FF06B
:1058E0000009BEE708000000D814002008080020C6
:1058F0002DE9F74317680546884600685168144645
:105900007E680AF0A7FA8146002842D130469522E7
:1059100029460CF045FC0646207540B1E3681B782B
:105920000BB184F81490002003B0BDE8F083A068A8
:105930000DF0A5FC02210C300DF0CDFC164B2061C2
:10594000A0F8008000930194334629463846A268A7
:105950000BF014FD002807DA10F1FF0F32BF0E2004
:105960004042C0B22075DEE72369002BDBD0A0687F
:105970000BF03FFB7B8D7A8B9A4294BFC0EB020009
:10598000C0EB0300E3681B78984294BF002001201D
:10599000CAE70120C8E700BF03100100F7B50023E4
:1059A00004460E4600226946284806F049F9054695
:1059B000D0B90FF007FF264B009F1A58254B2946F8
:1059C0001A60381D28220FF0EDFE3C60009C00227A
:1059D000C4E90155C4E9095500231F4801A90195EF
:1059E00006F02EF9054620B16FF00B05284603B0EE
:1059F000F0BD019B0146A82218460FF0D3FE174ABE
:105A000082603C300FF014F9019B3433D3E8EF2F60
:105A1000C3E8E15F0029F9D1019B1C60636A019F23
:105A20001BB904F10C000FF003F9626A07F1A0033F
:105A3000C7F8A020A26A636202B9A3621722019B81
:105A40005A855A8304333360D0E700BF2007002013
:105A500008000000501C00203C0700203C030020F0
:105A60002DE9F347D1F8188006460C46D8F8009087
:105A7000CB6800F13402D2E8AF2F52073BD51B7838
:105A8000D22B0FD1036818680DF0FFF8054648B116
:105A9000A069FFF755FE204602F076FE284602B0C8
:105AA000BDE8F08704F10C000DF05FFCB4F810A025
:105AB000C8F80060336807461D68E3680421187859
:105AC000FFF7FEFD052898BF0C4B224694BF53F804
:105AD00020300B4B2846CDF800800BF008FA054625
